{
  "transactions": [
    {
      "hash": "0xbb0236adbe9a67db09ea454c386e2959568d68a4176db0f82d1eeaabb5a9d8d7",
      "transactionType": "CREATE",
      "contractName": "mockDAI",
      "contractAddress": "0x2BD311122823a95fd28f534814bd38C458948dC4",
      "function": null,
      "arguments": [
        "0x2fAFA5Ce36B88693b446F1d1BFa9A2fdB63b47A2"
      ],
      "transaction": {
        "type": "0x02",
        "from": "0x2fafa5ce36b88693b446f1d1bfa9a2fdb63b47a2",
        "gas": "0xaff86",
        "value": "0x0",
        "data": "0x60806040523480156200001157600080fd5b5060405162000b2638038062000b26833981016040819052620000349162000228565b604051806040016040528060078152602001666d6f636b44414960c81b815250604051806040016040528060048152602001636d44414960e01b815250816003908162000082919062000301565b50600462000091828262000301565b505050620000ac816516bcc41e9000620000b360201b60201c565b50620003f5565b6001600160a01b038216620000e35760405163ec442f0560e01b8152600060048201526024015b60405180910390fd5b620000f160008383620000f5565b5050565b6001600160a01b03831662000124578060026000828254620001189190620003cd565b90915550620001989050565b6001600160a01b03831660009081526020819052604090205481811015620001795760405163391434e360e21b81526001600160a01b03851660048201526024810182905260448101839052606401620000da565b6001600160a01b03841660009081526020819052604090209082900390555b6001600160a01b038216620001b657600280548290039055620001d5565b6001600160a01b03821660009081526020819052604090208054820190555b816001600160a01b0316836001600160a01b03167fddf252ad1be2c89b69c2b068fc378daa952ba7f163c4a11628f55a4df523b3ef836040516200021b91815260200190565b60405180910390a3505050565b6000602082840312156200023b57600080fd5b81516001600160a01b03811681146200025357600080fd5b9392505050565b634e487b7160e01b600052604160045260246000fd5b600181811c908216806200028557607f821691505b602082108103620002a657634e487b7160e01b600052602260045260246000fd5b50919050565b601f821115620002fc576000816000526020600020601f850160051c81016020861015620002d75750805b601f850160051c820191505b81811015620002f857828155600101620002e3565b5050505b505050565b81516001600160401b038111156200031d576200031d6200025a565b62000335816200032e845462000270565b84620002ac565b602080601f8311600181146200036d5760008415620003545750858301515b600019600386901b1c1916600185901b178555620002f8565b600085815260208120601f198616915b828110156200039e578886015182559484019460019091019084016200037d565b5085821015620003bd5787850151600019600388901b60f8161c191681555b5050505050600190811b01905550565b80820180821115620003ef57634e487b7160e01b600052601160045260246000fd5b92915050565b61072180620004056000396000f3fe608060405234801561001057600080fd5b50600436106100935760003560e01c8063313ce56711610066578063313ce567146100fe57806370a082311461010d57806395d89b4114610136578063a9059cbb1461013e578063dd62ed3e1461015157600080fd5b806306fdde0314610098578063095ea7b3146100b657806318160ddd146100d957806323b872dd146100eb575b600080fd5b6100a061018a565b6040516100ad919061056a565b60405180910390f35b6100c96100c43660046105d5565b61021c565b60405190151581526020016100ad565b6002545b6040519081526020016100ad565b6100c96100f93660046105ff565b610236565b604051600681526020016100ad565b6100dd61011b36600461063b565b6001600160a01b031660009081526020819052604090205490565b6100a061025a565b6100c961014c3660046105d5565b610269565b6100dd61015f36600461065d565b6001600160a01b03918216600090815260016020908152604080832093909416825291909152205490565b60606003805461019990610690565b80601f01602080910402602001604051908101604052809291908181526020018280546101c590610690565b80156102125780601f106101e757610100808354040283529160200191610212565b820191906000526020600020905b8154815290600101906020018083116101f557829003601f168201915b5050505050905090565b60003361022a818585610277565b60019150505b92915050565b600033610244858285610289565b61024f85858561030c565b506001949350505050565b60606004805461019990610690565b60003361022a81858561030c565b610284838383600161036b565b505050565b6001600160a01b03838116600090815260016020908152604080832093861683529290522054600019811461030657818110156102f757604051637dc7a0d960e11b81526001600160a01b038416600482015260248101829052604481018390526064015b60405180910390fd5b6103068484848403600061036b565b50505050565b6001600160a01b03831661033657604051634b637e8f60e11b8152600060048201526024016102ee565b6001600160a01b0382166103605760405163ec442f0560e01b8152600060048201526024016102ee565b610284838383610440565b6001600160a01b0384166103955760405163e602df0560e01b8152600060048201526024016102ee565b6001600160a01b0383166103bf57604051634a1406b160e11b8152600060048201526024016102ee565b6001600160a01b038085166000908152600160209081526040808320938716835292905220829055801561030657826001600160a01b0316846001600160a01b03167f8c5be1e5ebec7d5bd14f71427d1e84f3dd0314c0f7b2291e5b200ac8c7c3b9258460405161043291815260200190565b60405180910390a350505050565b6001600160a01b03831661046b57806002600082825461046091906106ca565b909155506104dd9050565b6001600160a01b038316600090815260208190526040902054818110156104be5760405163391434e360e21b81526001600160a01b038516600482015260248101829052604481018390526064016102ee565b6001600160a01b03841660009081526020819052604090209082900390555b6001600160a01b0382166104f957600280548290039055610518565b6001600160a01b03821660009081526020819052604090208054820190555b816001600160a01b0316836001600160a01b03167fddf252ad1be2c89b69c2b068fc378daa952ba7f163c4a11628f55a4df523b3ef8360405161055d91815260200190565b60405180910390a3505050565b60006020808352835180602085015260005b818110156105985785810183015185820160400152820161057c565b506000604082860101526040601f19601f8301168501019250505092915050565b80356001600160a01b03811681146105d057600080fd5b919050565b600080604083850312156105e857600080fd5b6105f1836105b9565b946020939093013593505050565b60008060006060848603121561061457600080fd5b61061d846105b9565b925061062b602085016105b9565b9150604084013590509250925092565b60006020828403121561064d57600080fd5b610656826105b9565b9392505050565b6000806040838503121561067057600080fd5b610679836105b9565b9150610687602084016105b9565b90509250929050565b600181811c908216806106a457607f821691505b6020821081036106c457634e487b7160e01b600052602260045260246000fd5b50919050565b8082018082111561023057634e487b7160e01b600052601160045260246000fdfea2646970667358221220d92af4fb922b68b96ac368f5d72c5c14321d21f42aa700642ab9af4e30bf62c964736f6c634300081700330000000000000000000000002fafa5ce36b88693b446f1d1bfa9a2fdb63b47a2",
        "nonce": "0x38",
        "accessList": []
      },
      "additionalContracts": [],
      "isFixedGasLimit": false
    },
    {
      "hash": "0x403247a46210b02aebb30e92bbc02579a1bba57924624760c0cb81cbf176247a",
      "transactionType": "CREATE",
      "contractName": "mockUSDC",
      "contractAddress": "0xD2dE6032b0BC2aCC3D5a03Df8b024fA4FaC7B0a9",
      "function": null,
      "arguments": [
        "0x2fAFA5Ce36B88693b446F1d1BFa9A2fdB63b47A2"
      ],
      "transaction": {
        "type": "0x02",
        "from": "0x2fafa5ce36b88693b446f1d1bfa9a2fdb63b47a2",
        "gas": "0xaffbf",
        "value": "0x0",
        "data": "0x60806040523480156200001157600080fd5b5060405162000b2838038062000b2883398101604081905262000034916200022a565b604051806040016040528060088152602001676d6f636b5553444360c01b815250604051806040016040528060058152602001646d5553444360d81b815250816003908162000084919062000303565b50600462000093828262000303565b505050620000ae816516bcc41e9000620000b560201b60201c565b50620003f7565b6001600160a01b038216620000e55760405163ec442f0560e01b8152600060048201526024015b60405180910390fd5b620000f360008383620000f7565b5050565b6001600160a01b038316620001265780600260008282546200011a9190620003cf565b909155506200019a9050565b6001600160a01b038316600090815260208190526040902054818110156200017b5760405163391434e360e21b81526001600160a01b03851660048201526024810182905260448101839052606401620000dc565b6001600160a01b03841660009081526020819052604090209082900390555b6001600160a01b038216620001b857600280548290039055620001d7565b6001600160a01b03821660009081526020819052604090208054820190555b816001600160a01b0316836001600160a01b03167fddf252ad1be2c89b69c2b068fc378daa952ba7f163c4a11628f55a4df523b3ef836040516200021d91815260200190565b60405180910390a3505050565b6000602082840312156200023d57600080fd5b81516001600160a01b03811681146200025557600080fd5b9392505050565b634e487b7160e01b600052604160045260246000fd5b600181811c908216806200028757607f821691505b602082108103620002a857634e487b7160e01b600052602260045260246000fd5b50919050565b601f821115620002fe576000816000526020600020601f850160051c81016020861015620002d95750805b601f850160051c820191505b81811015620002fa57828155600101620002e5565b5050505b505050565b81516001600160401b038111156200031f576200031f6200025c565b620003378162000330845462000272565b84620002ae565b602080601f8311600181146200036f5760008415620003565750858301515b600019600386901b1c1916600185901b178555620002fa565b600085815260208120601f198616915b82811015620003a0578886015182559484019460019091019084016200037f565b5085821015620003bf5787850151600019600388901b60f8161c191681555b5050505050600190811b01905550565b80820180821115620003f157634e487b7160e01b600052601160045260246000fd5b92915050565b61072180620004076000396000f3fe608060405234801561001057600080fd5b50600436106100935760003560e01c8063313ce56711610066578063313ce567146100fe57806370a082311461010d57806395d89b4114610136578063a9059cbb1461013e578063dd62ed3e1461015157600080fd5b806306fdde0314610098578063095ea7b3146100b657806318160ddd146100d957806323b872dd146100eb575b600080fd5b6100a061018a565b6040516100ad919061056a565b60405180910390f35b6100c96100c43660046105d5565b61021c565b60405190151581526020016100ad565b6002545b6040519081526020016100ad565b6100c96100f93660046105ff565b610236565b604051600681526020016100ad565b6100dd61011b36600461063b565b6001600160a01b031660009081526020819052604090205490565b6100a061025a565b6100c961014c3660046105d5565b610269565b6100dd61015f36600461065d565b6001600160a01b03918216600090815260016020908152604080832093909416825291909152205490565b60606003805461019990610690565b80601f01602080910402602001604051908101604052809291908181526020018280546101c590610690565b80156102125780601f106101e757610100808354040283529160200191610212565b820191906000526020600020905b8154815290600101906020018083116101f557829003601f168201915b5050505050905090565b60003361022a818585610277565b60019150505b92915050565b600033610244858285610289565b61024f85858561030c565b506001949350505050565b60606004805461019990610690565b60003361022a81858561030c565b610284838383600161036b565b505050565b6001600160a01b03838116600090815260016020908152604080832093861683529290522054600019811461030657818110156102f757604051637dc7a0d960e11b81526001600160a01b038416600482015260248101829052604481018390526064015b60405180910390fd5b6103068484848403600061036b565b50505050565b6001600160a01b03831661033657604051634b637e8f60e11b8152600060048201526024016102ee565b6001600160a01b0382166103605760405163ec442f0560e01b8152600060048201526024016102ee565b610284838383610440565b6001600160a01b0384166103955760405163e602df0560e01b8152600060048201526024016102ee565b6001600160a01b0383166103bf57604051634a1406b160e11b8152600060048201526024016102ee565b6001600160a01b038085166000908152600160209081526040808320938716835292905220829055801561030657826001600160a01b0316846001600160a01b03167f8c5be1e5ebec7d5bd14f71427d1e84f3dd0314c0f7b2291e5b200ac8c7c3b9258460405161043291815260200190565b60405180910390a350505050565b6001600160a01b03831661046b57806002600082825461046091906106ca565b909155506104dd9050565b6001600160a01b038316600090815260208190526040902054818110156104be5760405163391434e360e21b81526001600160a01b038516600482015260248101829052604481018390526064016102ee565b6001600160a01b03841660009081526020819052604090209082900390555b6001600160a01b0382166104f957600280548290039055610518565b6001600160a01b03821660009081526020819052604090208054820190555b816001600160a01b0316836001600160a01b03167fddf252ad1be2c89b69c2b068fc378daa952ba7f163c4a11628f55a4df523b3ef8360405161055d91815260200190565b60405180910390a3505050565b60006020808352835180602085015260005b818110156105985785810183015185820160400152820161057c565b506000604082860101526040601f19601f8301168501019250505092915050565b80356001600160a01b03811681146105d057600080fd5b919050565b600080604083850312156105e857600080fd5b6105f1836105b9565b946020939093013593505050565b60008060006060848603121561061457600080fd5b61061d846105b9565b925061062b602085016105b9565b9150604084013590509250925092565b60006020828403121561064d57600080fd5b610656826105b9565b9392505050565b6000806040838503121561067057600080fd5b610679836105b9565b9150610687602084016105b9565b90509250929050565b600181811c908216806106a457607f821691505b6020821081036106c457634e487b7160e01b600052602260045260246000fd5b50919050565b8082018082111561023057634e487b7160e01b600052601160045260246000fdfea264697066735822122042f6f9d431123adda9b59c649cd0f17341e6f9977d93ad8b9186cd2e0d755a7664736f6c634300081700330000000000000000000000002fafa5ce36b88693b446f1d1bfa9a2fdb63b47a2",
        "nonce": "0x39",
        "accessList": []
      },
      "additionalContracts": [],
      "isFixedGasLimit": false
    },
    {
      "hash": "0x10376b02c99ef399a47f6e9a5fd797edee68e64d8a3a85e2731f3073b3da2fef",
      "transactionType": "CREATE",
      "contractName": "mockUSDT",
      "contractAddress": "0xd6fDaA3a7535372B568476c2B6ea1C11a16a1e44",
      "function": null,
      "arguments": [
        "0x2fAFA5Ce36B88693b446F1d1BFa9A2fdB63b47A2"
      ],
      "transaction": {
        "type": "0x02",
        "from": "0x2fafa5ce36b88693b446f1d1bfa9a2fdb63b47a2",
        "gas": "0xaffbf",
        "value": "0x0",
        "data": "0x60806040523480156200001157600080fd5b5060405162000b2838038062000b2883398101604081905262000034916200022a565b604051806040016040528060088152602001671b5bd8dad554d11560c21b815250604051806040016040528060058152602001641b5554d11560da1b815250816003908162000084919062000303565b50600462000093828262000303565b505050620000ae816516bcc41e9000620000b560201b60201c565b50620003f7565b6001600160a01b038216620000e55760405163ec442f0560e01b8152600060048201526024015b60405180910390fd5b620000f360008383620000f7565b5050565b6001600160a01b038316620001265780600260008282546200011a9190620003cf565b909155506200019a9050565b6001600160a01b038316600090815260208190526040902054818110156200017b5760405163391434e360e21b81526001600160a01b03851660048201526024810182905260448101839052606401620000dc565b6001600160a01b03841660009081526020819052604090209082900390555b6001600160a01b038216620001b857600280548290039055620001d7565b6001600160a01b03821660009081526020819052604090208054820190555b816001600160a01b0316836001600160a01b03167fddf252ad1be2c89b69c2b068fc378daa952ba7f163c4a11628f55a4df523b3ef836040516200021d91815260200190565b60405180910390a3505050565b6000602082840312156200023d57600080fd5b81516001600160a01b03811681146200025557600080fd5b9392505050565b634e487b7160e01b600052604160045260246000fd5b600181811c908216806200028757607f821691505b602082108103620002a857634e487b7160e01b600052602260045260246000fd5b50919050565b601f821115620002fe576000816000526020600020601f850160051c81016020861015620002d95750805b601f850160051c820191505b81811015620002fa57828155600101620002e5565b5050505b505050565b81516001600160401b038111156200031f576200031f6200025c565b620003378162000330845462000272565b84620002ae565b602080601f8311600181146200036f5760008415620003565750858301515b600019600386901b1c1916600185901b178555620002fa565b600085815260208120601f198616915b82811015620003a0578886015182559484019460019091019084016200037f565b5085821015620003bf5787850151600019600388901b60f8161c191681555b5050505050600190811b01905550565b80820180821115620003f157634e487b7160e01b600052601160045260246000fd5b92915050565b61072180620004076000396000f3fe608060405234801561001057600080fd5b50600436106100935760003560e01c8063313ce56711610066578063313ce567146100fe57806370a082311461010d57806395d89b4114610136578063a9059cbb1461013e578063dd62ed3e1461015157600080fd5b806306fdde0314610098578063095ea7b3146100b657806318160ddd146100d957806323b872dd146100eb575b600080fd5b6100a061018a565b6040516100ad919061056a565b60405180910390f35b6100c96100c43660046105d5565b61021c565b60405190151581526020016100ad565b6002545b6040519081526020016100ad565b6100c96100f93660046105ff565b610236565b604051600681526020016100ad565b6100dd61011b36600461063b565b6001600160a01b031660009081526020819052604090205490565b6100a061025a565b6100c961014c3660046105d5565b610269565b6100dd61015f36600461065d565b6001600160a01b03918216600090815260016020908152604080832093909416825291909152205490565b60606003805461019990610690565b80601f01602080910402602001604051908101604052809291908181526020018280546101c590610690565b80156102125780601f106101e757610100808354040283529160200191610212565b820191906000526020600020905b8154815290600101906020018083116101f557829003601f168201915b5050505050905090565b60003361022a818585610277565b60019150505b92915050565b600033610244858285610289565b61024f85858561030c565b506001949350505050565b60606004805461019990610690565b60003361022a81858561030c565b610284838383600161036b565b505050565b6001600160a01b03838116600090815260016020908152604080832093861683529290522054600019811461030657818110156102f757604051637dc7a0d960e11b81526001600160a01b038416600482015260248101829052604481018390526064015b60405180910390fd5b6103068484848403600061036b565b50505050565b6001600160a01b03831661033657604051634b637e8f60e11b8152600060048201526024016102ee565b6001600160a01b0382166103605760405163ec442f0560e01b8152600060048201526024016102ee565b610284838383610440565b6001600160a01b0384166103955760405163e602df0560e01b8152600060048201526024016102ee565b6001600160a01b0383166103bf57604051634a1406b160e11b8152600060048201526024016102ee565b6001600160a01b038085166000908152600160209081526040808320938716835292905220829055801561030657826001600160a01b0316846001600160a01b03167f8c5be1e5ebec7d5bd14f71427d1e84f3dd0314c0f7b2291e5b200ac8c7c3b9258460405161043291815260200190565b60405180910390a350505050565b6001600160a01b03831661046b57806002600082825461046091906106ca565b909155506104dd9050565b6001600160a01b038316600090815260208190526040902054818110156104be5760405163391434e360e21b81526001600160a01b038516600482015260248101829052604481018390526064016102ee565b6001600160a01b03841660009081526020819052604090209082900390555b6001600160a01b0382166104f957600280548290039055610518565b6001600160a01b03821660009081526020819052604090208054820190555b816001600160a01b0316836001600160a01b03167fddf252ad1be2c89b69c2b068fc378daa952ba7f163c4a11628f55a4df523b3ef8360405161055d91815260200190565b60405180910390a3505050565b60006020808352835180602085015260005b818110156105985785810183015185820160400152820161057c565b506000604082860101526040601f19601f8301168501019250505092915050565b80356001600160a01b03811681146105d057600080fd5b919050565b600080604083850312156105e857600080fd5b6105f1836105b9565b946020939093013593505050565b60008060006060848603121561061457600080fd5b61061d846105b9565b925061062b602085016105b9565b9150604084013590509250925092565b60006020828403121561064d57600080fd5b610656826105b9565b9392505050565b6000806040838503121561067057600080fd5b610679836105b9565b9150610687602084016105b9565b90509250929050565b600181811c908216806106a457607f821691505b6020821081036106c457634e487b7160e01b600052602260045260246000fd5b50919050565b8082018082111561023057634e487b7160e01b600052601160045260246000fdfea2646970667358221220065abfa37b01c8d4331d46034508bbcdbec329b0e2d33906782dfa517b8ffd2c64736f6c634300081700330000000000000000000000002fafa5ce36b88693b446f1d1bfa9a2fdb63b47a2",
        "nonce": "0x3a",
        "accessList": []
      },
      "additionalContracts": [],
      "isFixedGasLimit": false
    },
    {
      "hash": "0xd569c09e3013b47bf6d682edf82cffa705d224f5294b6ed3cd4cd525f0ca95bd",
      "transactionType": "CREATE",
      "contractName": "mockWETH",
      "contractAddress": "0x367D85aa4C908b5CC8a71373Ff6092C82740fF0e",
      "function": null,
      "arguments": [
        "0x2fAFA5Ce36B88693b446F1d1BFa9A2fdB63b47A2"
      ],
      "transaction": {
        "type": "0x02",
        "from": "0x2fafa5ce36b88693b446f1d1bfa9a2fdb63b47a2",
        "gas": "0xaffbf",
        "value": "0x0",
        "data": "0x60806040523480156200001157600080fd5b5060405162000b2838038062000b2883398101604081905262000034916200022a565b604051806040016040528060088152602001670dadec6d6ae8aa8960c31b815250604051806040016040528060058152602001640daae8aa8960db1b815250816003908162000084919062000303565b50600462000093828262000303565b505050620000ae816516bcc41e9000620000b560201b60201c565b50620003f7565b6001600160a01b038216620000e55760405163ec442f0560e01b8152600060048201526024015b60405180910390fd5b620000f360008383620000f7565b5050565b6001600160a01b038316620001265780600260008282546200011a9190620003cf565b909155506200019a9050565b6001600160a01b038316600090815260208190526040902054818110156200017b5760405163391434e360e21b81526001600160a01b03851660048201526024810182905260448101839052606401620000dc565b6001600160a01b03841660009081526020819052604090209082900390555b6001600160a01b038216620001b857600280548290039055620001d7565b6001600160a01b03821660009081526020819052604090208054820190555b816001600160a01b0316836001600160a01b03167fddf252ad1be2c89b69c2b068fc378daa952ba7f163c4a11628f55a4df523b3ef836040516200021d91815260200190565b60405180910390a3505050565b6000602082840312156200023d57600080fd5b81516001600160a01b03811681146200025557600080fd5b9392505050565b634e487b7160e01b600052604160045260246000fd5b600181811c908216806200028757607f821691505b602082108103620002a857634e487b7160e01b600052602260045260246000fd5b50919050565b601f821115620002fe576000816000526020600020601f850160051c81016020861015620002d95750805b601f850160051c820191505b81811015620002fa57828155600101620002e5565b5050505b505050565b81516001600160401b038111156200031f576200031f6200025c565b620003378162000330845462000272565b84620002ae565b602080601f8311600181146200036f5760008415620003565750858301515b600019600386901b1c1916600185901b178555620002fa565b600085815260208120601f198616915b82811015620003a0578886015182559484019460019091019084016200037f565b5085821015620003bf5787850151600019600388901b60f8161c191681555b5050505050600190811b01905550565b80820180821115620003f157634e487b7160e01b600052601160045260246000fd5b92915050565b61072180620004076000396000f3fe608060405234801561001057600080fd5b50600436106100935760003560e01c8063313ce56711610066578063313ce567146100fe57806370a082311461010d57806395d89b4114610136578063a9059cbb1461013e578063dd62ed3e1461015157600080fd5b806306fdde0314610098578063095ea7b3146100b657806318160ddd146100d957806323b872dd146100eb575b600080fd5b6100a061018a565b6040516100ad919061056a565b60405180910390f35b6100c96100c43660046105d5565b61021c565b60405190151581526020016100ad565b6002545b6040519081526020016100ad565b6100c96100f93660046105ff565b610236565b604051600681526020016100ad565b6100dd61011b36600461063b565b6001600160a01b031660009081526020819052604090205490565b6100a061025a565b6100c961014c3660046105d5565b610269565b6100dd61015f36600461065d565b6001600160a01b03918216600090815260016020908152604080832093909416825291909152205490565b60606003805461019990610690565b80601f01602080910402602001604051908101604052809291908181526020018280546101c590610690565b80156102125780601f106101e757610100808354040283529160200191610212565b820191906000526020600020905b8154815290600101906020018083116101f557829003601f168201915b5050505050905090565b60003361022a818585610277565b60019150505b92915050565b600033610244858285610289565b61024f85858561030c565b506001949350505050565b60606004805461019990610690565b60003361022a81858561030c565b610284838383600161036b565b505050565b6001600160a01b03838116600090815260016020908152604080832093861683529290522054600019811461030657818110156102f757604051637dc7a0d960e11b81526001600160a01b038416600482015260248101829052604481018390526064015b60405180910390fd5b6103068484848403600061036b565b50505050565b6001600160a01b03831661033657604051634b637e8f60e11b8152600060048201526024016102ee565b6001600160a01b0382166103605760405163ec442f0560e01b8152600060048201526024016102ee565b610284838383610440565b6001600160a01b0384166103955760405163e602df0560e01b8152600060048201526024016102ee565b6001600160a01b0383166103bf57604051634a1406b160e11b8152600060048201526024016102ee565b6001600160a01b038085166000908152600160209081526040808320938716835292905220829055801561030657826001600160a01b0316846001600160a01b03167f8c5be1e5ebec7d5bd14f71427d1e84f3dd0314c0f7b2291e5b200ac8c7c3b9258460405161043291815260200190565b60405180910390a350505050565b6001600160a01b03831661046b57806002600082825461046091906106ca565b909155506104dd9050565b6001600160a01b038316600090815260208190526040902054818110156104be5760405163391434e360e21b81526001600160a01b038516600482015260248101829052604481018390526064016102ee565b6001600160a01b03841660009081526020819052604090209082900390555b6001600160a01b0382166104f957600280548290039055610518565b6001600160a01b03821660009081526020819052604090208054820190555b816001600160a01b0316836001600160a01b03167fddf252ad1be2c89b69c2b068fc378daa952ba7f163c4a11628f55a4df523b3ef8360405161055d91815260200190565b60405180910390a3505050565b60006020808352835180602085015260005b818110156105985785810183015185820160400152820161057c565b506000604082860101526040601f19601f8301168501019250505092915050565b80356001600160a01b03811681146105d057600080fd5b919050565b600080604083850312156105e857600080fd5b6105f1836105b9565b946020939093013593505050565b60008060006060848603121561061457600080fd5b61061d846105b9565b925061062b602085016105b9565b9150604084013590509250925092565b60006020828403121561064d57600080fd5b610656826105b9565b9392505050565b6000806040838503121561067057600080fd5b610679836105b9565b9150610687602084016105b9565b90509250929050565b600181811c908216806106a457607f821691505b6020821081036106c457634e487b7160e01b600052602260045260246000fd5b50919050565b8082018082111561023057634e487b7160e01b600052601160045260246000fdfea26469706673582212203cd78950a68e40eb2c54dd28cfd97c34f2ff055b838210091c2eba8964b183e864736f6c634300081700330000000000000000000000002fafa5ce36b88693b446f1d1bfa9a2fdb63b47a2",
        "nonce": "0x3b",
        "accessList": []
      },
      "additionalContracts": [],
      "isFixedGasLimit": false
    },
    {
      "hash": "0xd1dcfba5398da3b9e93090586b38efeee7a79f298e593f74abe49b6b84c146bf",
      "transactionType": "CALL",
      "contractName": "mockWETH",
      "contractAddress": "0x367D85aa4C908b5CC8a71373Ff6092C82740fF0e",
      "function": "approve(address,uint256)",
      "arguments": [
        "0x5b73C5498c1E3b4dbA84de0F1833c4a029d90519",
        "5000000000"
      ],
      "transaction": {
        "type": "0x02",
        "from": "0x2fafa5ce36b88693b446f1d1bfa9a2fdb63b47a2",
        "to": "0x367d85aa4c908b5cc8a71373ff6092c82740ff0e",
        "gas": "0x108c6",
        "value": "0x0",
        "data": "0x095ea7b30000000000000000000000005b73c5498c1e3b4dba84de0f1833c4a029d90519000000000000000000000000000000000000000000000000000000012a05f200",
        "nonce": "0x3c",
        "accessList": []
      },
      "additionalContracts": [],
      "isFixedGasLimit": false
    },
    {
      "hash": "0xba4c3b6438739dfce0016a92991c0540d7aa9eab386027a2ce5faaa6cda19ed3",
      "transactionType": "CALL",
      "contractName": "mockUSDC",
      "contractAddress": "0xD2dE6032b0BC2aCC3D5a03Df8b024fA4FaC7B0a9",
      "function": "approve(address,uint256)",
      "arguments": [
        "0x5b73C5498c1E3b4dbA84de0F1833c4a029d90519",
        "5000000000"
      ],
      "transaction": {
        "type": "0x02",
        "from": "0x2fafa5ce36b88693b446f1d1bfa9a2fdb63b47a2",
        "to": "0xd2de6032b0bc2acc3d5a03df8b024fa4fac7b0a9",
        "gas": "0x108c6",
        "value": "0x0",
        "data": "0x095ea7b30000000000000000000000005b73c5498c1e3b4dba84de0f1833c4a029d90519000000000000000000000000000000000000000000000000000000012a05f200",
        "nonce": "0x3d",
        "accessList": []
      },
      "additionalContracts": [],
      "isFixedGasLimit": false
    },
    {
      "hash": "0x875e1e9f74a992a1a544ded2b09554532748c0316f0e07e9c8b47937605ef5da",
      "transactionType": "CALL",
      "contractName": "mockUSDT",
      "contractAddress": "0xd6fDaA3a7535372B568476c2B6ea1C11a16a1e44",
      "function": "approve(address,uint256)",
      "arguments": [
        "0x5b73C5498c1E3b4dbA84de0F1833c4a029d90519",
        "5000000000"
      ],
      "transaction": {
        "type": "0x02",
        "from": "0x2fafa5ce36b88693b446f1d1bfa9a2fdb63b47a2",
        "to": "0xd6fdaa3a7535372b568476c2b6ea1c11a16a1e44",
        "gas": "0x108c6",
        "value": "0x0",
        "data": "0x095ea7b30000000000000000000000005b73c5498c1e3b4dba84de0f1833c4a029d90519000000000000000000000000000000000000000000000000000000012a05f200",
        "nonce": "0x3e",
        "accessList": []
      },
      "additionalContracts": [],
      "isFixedGasLimit": false
    },
    {
      "hash": "0x860fd29b4370a3880691859201180d43bc6ff5b523b02d0292dd6650bfa50a55",
      "transactionType": "CALL",
      "contractName": "mockDAI",
      "contractAddress": "0x2BD311122823a95fd28f534814bd38C458948dC4",
      "function": "approve(address,uint256)",
      "arguments": [
        "0x5b73C5498c1E3b4dbA84de0F1833c4a029d90519",
        "5000000000"
      ],
      "transaction": {
        "type": "0x02",
        "from": "0x2fafa5ce36b88693b446f1d1bfa9a2fdb63b47a2",
        "to": "0x2bd311122823a95fd28f534814bd38c458948dc4",
        "gas": "0x108c6",
        "value": "0x0",
        "data": "0x095ea7b30000000000000000000000005b73c5498c1e3b4dba84de0f1833c4a029d90519000000000000000000000000000000000000000000000000000000012a05f200",
        "nonce": "0x3f",
        "accessList": []
      },
      "additionalContracts": [],
      "isFixedGasLimit": false
    },
    {
      "hash": "0xd4a3fc2a9679f10d4e66e15f4b4dcefb205d8cfe8a067346ea25bcf97c083556",
      "transactionType": "CALL",
      "contractName": "mockWETH",
      "contractAddress": "0x367D85aa4C908b5CC8a71373Ff6092C82740fF0e",
      "function": "transfer(address,uint256)",
      "arguments": [
        "0xf3bC9Fce01133Bad3a46898bD91DeE7A24d3Bef2",
        "1000000000"
      ],
      "transaction": {
        "type": "0x02",
        "from": "0x2fafa5ce36b88693b446f1d1bfa9a2fdb63b47a2",
        "to": "0x367d85aa4c908b5cc8a71373ff6092c82740ff0e",
        "gas": "0x11652",
        "value": "0x0",
        "data": "0xa9059cbb000000000000000000000000f3bc9fce01133bad3a46898bd91dee7a24d3bef2000000000000000000000000000000000000000000000000000000003b9aca00",
        "nonce": "0x40",
        "accessList": []
      },
      "additionalContracts": [],
      "isFixedGasLimit": false
    },
    {
      "hash": "0x3707399c0b30beb25bcb0c8552c3146592bcb41c683a56848ec4fb3e2d3eac01",
      "transactionType": "CALL",
      "contractName": "mockUSDC",
      "contractAddress": "0xD2dE6032b0BC2aCC3D5a03Df8b024fA4FaC7B0a9",
      "function": "transfer(address,uint256)",
      "arguments": [
        "0xf3bC9Fce01133Bad3a46898bD91DeE7A24d3Bef2",
        "1000000000"
      ],
      "transaction": {
        "type": "0x02",
        "from": "0x2fafa5ce36b88693b446f1d1bfa9a2fdb63b47a2",
        "to": "0xd2de6032b0bc2acc3d5a03df8b024fa4fac7b0a9",
        "gas": "0x11652",
        "value": "0x0",
        "data": "0xa9059cbb000000000000000000000000f3bc9fce01133bad3a46898bd91dee7a24d3bef2000000000000000000000000000000000000000000000000000000003b9aca00",
        "nonce": "0x41",
        "accessList": []
      },
      "additionalContracts": [],
      "isFixedGasLimit": false
    },
    {
      "hash": "0xfde37d36d807374c4547cb699e982992e1e6edb3a877d5594b2c859a1f5f9c74",
      "transactionType": "CALL",
      "contractName": "mockUSDT",
      "contractAddress": "0xd6fDaA3a7535372B568476c2B6ea1C11a16a1e44",
      "function": "transfer(address,uint256)",
      "arguments": [
        "0xf3bC9Fce01133Bad3a46898bD91DeE7A24d3Bef2",
        "1000000000"
      ],
      "transaction": {
        "type": "0x02",
        "from": "0x2fafa5ce36b88693b446f1d1bfa9a2fdb63b47a2",
        "to": "0xd6fdaa3a7535372b568476c2b6ea1c11a16a1e44",
        "gas": "0x11652",
        "value": "0x0",
        "data": "0xa9059cbb000000000000000000000000f3bc9fce01133bad3a46898bd91dee7a24d3bef2000000000000000000000000000000000000000000000000000000003b9aca00",
        "nonce": "0x42",
        "accessList": []
      },
      "additionalContracts": [],
      "isFixedGasLimit": false
    },
    {
      "hash": "0x7b801389bae6257155dd9c2b5ced7a72601db3681d2b4150f32869b22a74aada",
      "transactionType": "CALL",
      "contractName": "mockDAI",
      "contractAddress": "0x2BD311122823a95fd28f534814bd38C458948dC4",
      "function": "transfer(address,uint256)",
      "arguments": [
        "0xf3bC9Fce01133Bad3a46898bD91DeE7A24d3Bef2",
        "1000000000"
      ],
      "transaction": {
        "type": "0x02",
        "from": "0x2fafa5ce36b88693b446f1d1bfa9a2fdb63b47a2",
        "to": "0x2bd311122823a95fd28f534814bd38c458948dc4",
        "gas": "0x11652",
        "value": "0x0",
        "data": "0xa9059cbb000000000000000000000000f3bc9fce01133bad3a46898bd91dee7a24d3bef2000000000000000000000000000000000000000000000000000000003b9aca00",
        "nonce": "0x43",
        "accessList": []
      },
      "additionalContracts": [],
      "isFixedGasLimit": false
    },
    {
      "hash": "0x13cd53cc4dc78d954a4dc5cd663d6a6cdd3f0b48f7e2e420048cf6f24dd3fb2e",
      "transactionType": "CALL",
      "contractName": "mockWETH",
      "contractAddress": "0x367D85aa4C908b5CC8a71373Ff6092C82740fF0e",
      "function": "transfer(address,uint256)",
      "arguments": [
        "0xC7dA10b318Fe53B8FDD4C1612B98a44154e081DD",
        "1000000000"
      ],
      "transaction": {
        "type": "0x02",
        "from": "0x2fafa5ce36b88693b446f1d1bfa9a2fdb63b47a2",
        "to": "0x367d85aa4c908b5cc8a71373ff6092c82740ff0e",
        "gas": "0x11652",
        "value": "0x0",
        "data": "0xa9059cbb000000000000000000000000c7da10b318fe53b8fdd4c1612b98a44154e081dd000000000000000000000000000000000000000000000000000000003b9aca00",
        "nonce": "0x44",
        "accessList": []
      },
      "additionalContracts": [],
      "isFixedGasLimit": false
    },
    {
      "hash": "0x3552f4b150cb2c4a7023b628ca265c35b1076607137180cb7abea7de607cc09d",
      "transactionType": "CALL",
      "contractName": "mockUSDC",
      "contractAddress": "0xD2dE6032b0BC2aCC3D5a03Df8b024fA4FaC7B0a9",
      "function": "transfer(address,uint256)",
      "arguments": [
        "0xC7dA10b318Fe53B8FDD4C1612B98a44154e081DD",
        "1000000000"
      ],
      "transaction": {
        "type": "0x02",
        "from": "0x2fafa5ce36b88693b446f1d1bfa9a2fdb63b47a2",
        "to": "0xd2de6032b0bc2acc3d5a03df8b024fa4fac7b0a9",
        "gas": "0x11652",
        "value": "0x0",
        "data": "0xa9059cbb000000000000000000000000c7da10b318fe53b8fdd4c1612b98a44154e081dd000000000000000000000000000000000000000000000000000000003b9aca00",
        "nonce": "0x45",
        "accessList": []
      },
      "additionalContracts": [],
      "isFixedGasLimit": false
    },
    {
      "hash": "0x5352ac3b931f34230313a7dbd894995a584ec444d2f587885def3a812725cfac",
      "transactionType": "CALL",
      "contractName": "mockUSDT",
      "contractAddress": "0xd6fDaA3a7535372B568476c2B6ea1C11a16a1e44",
      "function": "transfer(address,uint256)",
      "arguments": [
        "0xC7dA10b318Fe53B8FDD4C1612B98a44154e081DD",
        "1000000000"
      ],
      "transaction": {
        "type": "0x02",
        "from": "0x2fafa5ce36b88693b446f1d1bfa9a2fdb63b47a2",
        "to": "0xd6fdaa3a7535372b568476c2b6ea1c11a16a1e44",
        "gas": "0x11652",
        "value": "0x0",
        "data": "0xa9059cbb000000000000000000000000c7da10b318fe53b8fdd4c1612b98a44154e081dd000000000000000000000000000000000000000000000000000000003b9aca00",
        "nonce": "0x46",
        "accessList": []
      },
      "additionalContracts": [],
      "isFixedGasLimit": false
    },
    {
      "hash": "0xb8e0523ca9663aaa621c83a2d4d839063f49d229a225e04bdd31297e98002b61",
      "transactionType": "CALL",
      "contractName": "mockDAI",
      "contractAddress": "0x2BD311122823a95fd28f534814bd38C458948dC4",
      "function": "transfer(address,uint256)",
      "arguments": [
        "0xC7dA10b318Fe53B8FDD4C1612B98a44154e081DD",
        "1000000000"
      ],
      "transaction": {
        "type": "0x02",
        "from": "0x2fafa5ce36b88693b446f1d1bfa9a2fdb63b47a2",
        "to": "0x2bd311122823a95fd28f534814bd38c458948dc4",
        "gas": "0x11652",
        "value": "0x0",
        "data": "0xa9059cbb000000000000000000000000c7da10b318fe53b8fdd4c1612b98a44154e081dd000000000000000000000000000000000000000000000000000000003b9aca00",
        "nonce": "0x47",
        "accessList": []
      },
      "additionalContracts": [],
      "isFixedGasLimit": false
    },
    {
      "hash": "0x85582946579365a217a7ee99b097ff5428accece16c5bf28adc7f7b087dcc9af",
      "transactionType": "CALL",
      "contractName": "mockWETH",
      "contractAddress": "0x367D85aa4C908b5CC8a71373Ff6092C82740fF0e",
      "function": "transfer(address,uint256)",
      "arguments": [
        "0x9E255510fa8F84d15bb196590a43e847E8d609a3",
        "1000000000"
      ],
      "transaction": {
        "type": "0x02",
        "from": "0x2fafa5ce36b88693b446f1d1bfa9a2fdb63b47a2",
        "to": "0x367d85aa4c908b5cc8a71373ff6092c82740ff0e",
        "gas": "0x11652",
        "value": "0x0",
        "data": "0xa9059cbb0000000000000000000000009e255510fa8f84d15bb196590a43e847e8d609a3000000000000000000000000000000000000000000000000000000003b9aca00",
        "nonce": "0x48",
        "accessList": []
      },
      "additionalContracts": [],
      "isFixedGasLimit": false
    },
    {
      "hash": "0x8e085811dbf8f51ba38ef9e8b7a7305b9cd8fee4695d3a48ac2fa4f2627d2922",
      "transactionType": "CALL",
      "contractName": "mockUSDC",
      "contractAddress": "0xD2dE6032b0BC2aCC3D5a03Df8b024fA4FaC7B0a9",
      "function": "transfer(address,uint256)",
      "arguments": [
        "0x9E255510fa8F84d15bb196590a43e847E8d609a3",
        "1000000000"
      ],
      "transaction": {
        "type": "0x02",
        "from": "0x2fafa5ce36b88693b446f1d1bfa9a2fdb63b47a2",
        "to": "0xd2de6032b0bc2acc3d5a03df8b024fa4fac7b0a9",
        "gas": "0x11652",
        "value": "0x0",
        "data": "0xa9059cbb0000000000000000000000009e255510fa8f84d15bb196590a43e847e8d609a3000000000000000000000000000000000000000000000000000000003b9aca00",
        "nonce": "0x49",
        "accessList": []
      },
      "additionalContracts": [],
      "isFixedGasLimit": false
    },
    {
      "hash": "0xe64fc0d3457f6e226dc75e54599e2cc1ac3a713f9d295fad273fecd2e4229e70",
      "transactionType": "CALL",
      "contractName": "mockUSDT",
      "contractAddress": "0xd6fDaA3a7535372B568476c2B6ea1C11a16a1e44",
      "function": "transfer(address,uint256)",
      "arguments": [
        "0x9E255510fa8F84d15bb196590a43e847E8d609a3",
        "1000000000"
      ],
      "transaction": {
        "type": "0x02",
        "from": "0x2fafa5ce36b88693b446f1d1bfa9a2fdb63b47a2",
        "to": "0xd6fdaa3a7535372b568476c2b6ea1c11a16a1e44",
        "gas": "0x11652",
        "value": "0x0",
        "data": "0xa9059cbb0000000000000000000000009e255510fa8f84d15bb196590a43e847e8d609a3000000000000000000000000000000000000000000000000000000003b9aca00",
        "nonce": "0x4a",
        "accessList": []
      },
      "additionalContracts": [],
      "isFixedGasLimit": false
    },
    {
      "hash": "0x18374ba75ec6ea7ce669ca69d2f1a357ceeea784970d77bac1c5aa0f65d09ce3",
      "transactionType": "CALL",
      "contractName": "mockDAI",
      "contractAddress": "0x2BD311122823a95fd28f534814bd38C458948dC4",
      "function": "transfer(address,uint256)",
      "arguments": [
        "0x9E255510fa8F84d15bb196590a43e847E8d609a3",
        "1000000000"
      ],
      "transaction": {
        "type": "0x02",
        "from": "0x2fafa5ce36b88693b446f1d1bfa9a2fdb63b47a2",
        "to": "0x2bd311122823a95fd28f534814bd38c458948dc4",
        "gas": "0x11652",
        "value": "0x0",
        "data": "0xa9059cbb0000000000000000000000009e255510fa8f84d15bb196590a43e847e8d609a3000000000000000000000000000000000000000000000000000000003b9aca00",
        "nonce": "0x4b",
        "accessList": []
      },
      "additionalContracts": [],
      "isFixedGasLimit": false
    },
    {
      "hash": "0x2b7fb6e99ed6f8c491e755dc38f2674e6625b6f09c0a5c500d24f1fad0c64a19",
      "transactionType": "CALL",
      "contractName": "mockWETH",
      "contractAddress": "0x367D85aa4C908b5CC8a71373Ff6092C82740fF0e",
      "function": "transfer(address,uint256)",
      "arguments": [
        "0x73d720768cD18e1a9473D874f064B08e1a5037f1",
        "1000000000"
      ],
      "transaction": {
        "type": "0x02",
        "from": "0x2fafa5ce36b88693b446f1d1bfa9a2fdb63b47a2",
        "to": "0x367d85aa4c908b5cc8a71373ff6092c82740ff0e",
        "gas": "0x11652",
        "value": "0x0",
        "data": "0xa9059cbb00000000000000000000000073d720768cd18e1a9473d874f064b08e1a5037f1000000000000000000000000000000000000000000000000000000003b9aca00",
        "nonce": "0x4c",
        "accessList": []
      },
      "additionalContracts": [],
      "isFixedGasLimit": false
    },
    {
      "hash": "0x602438333be1a675bf1d34b6e453efafeeb809669df77d0805d865c34455820d",
      "transactionType": "CALL",
      "contractName": "mockUSDC",
      "contractAddress": "0xD2dE6032b0BC2aCC3D5a03Df8b024fA4FaC7B0a9",
      "function": "transfer(address,uint256)",
      "arguments": [
        "0x73d720768cD18e1a9473D874f064B08e1a5037f1",
        "1000000000"
      ],
      "transaction": {
        "type": "0x02",
        "from": "0x2fafa5ce36b88693b446f1d1bfa9a2fdb63b47a2",
        "to": "0xd2de6032b0bc2acc3d5a03df8b024fa4fac7b0a9",
        "gas": "0x11652",
        "value": "0x0",
        "data": "0xa9059cbb00000000000000000000000073d720768cd18e1a9473d874f064b08e1a5037f1000000000000000000000000000000000000000000000000000000003b9aca00",
        "nonce": "0x4d",
        "accessList": []
      },
      "additionalContracts": [],
      "isFixedGasLimit": false
    },
    {
      "hash": "0xfc636a4282415f0586fff3ff94a8feb7b2bcf87e7217144e3e135ff9fcf57c2b",
      "transactionType": "CALL",
      "contractName": "mockUSDT",
      "contractAddress": "0xd6fDaA3a7535372B568476c2B6ea1C11a16a1e44",
      "function": "transfer(address,uint256)",
      "arguments": [
        "0x73d720768cD18e1a9473D874f064B08e1a5037f1",
        "1000000000"
      ],
      "transaction": {
        "type": "0x02",
        "from": "0x2fafa5ce36b88693b446f1d1bfa9a2fdb63b47a2",
        "to": "0xd6fdaa3a7535372b568476c2b6ea1c11a16a1e44",
        "gas": "0x11652",
        "value": "0x0",
        "data": "0xa9059cbb00000000000000000000000073d720768cd18e1a9473d874f064b08e1a5037f1000000000000000000000000000000000000000000000000000000003b9aca00",
        "nonce": "0x4e",
        "accessList": []
      },
      "additionalContracts": [],
      "isFixedGasLimit": false
    },
    {
      "hash": "0x0f049cc0b63b3de53a64cd4ecb16b5d3007ad90d3dfd76c84eec389b10c7f7f3",
      "transactionType": "CALL",
      "contractName": "mockDAI",
      "contractAddress": "0x2BD311122823a95fd28f534814bd38C458948dC4",
      "function": "transfer(address,uint256)",
      "arguments": [
        "0x73d720768cD18e1a9473D874f064B08e1a5037f1",
        "1000000000"
      ],
      "transaction": {
        "type": "0x02",
        "from": "0x2fafa5ce36b88693b446f1d1bfa9a2fdb63b47a2",
        "to": "0x2bd311122823a95fd28f534814bd38c458948dc4",
        "gas": "0x11652",
        "value": "0x0",
        "data": "0xa9059cbb00000000000000000000000073d720768cd18e1a9473d874f064b08e1a5037f1000000000000000000000000000000000000000000000000000000003b9aca00",
        "nonce": "0x4f",
        "accessList": []
      },
      "additionalContracts": [],
      "isFixedGasLimit": false
    }
  ],
  "receipts": [
    {
      "transactionHash": "0xbb0236adbe9a67db09ea454c386e2959568d68a4176db0f82d1eeaabb5a9d8d7",
      "transactionIndex": "0x11",
      "blockHash": "0x4a8452525c02d1ea150ee445bd3f55a4f704d3d8acfbeb15d65905a539971a66",
      "blockNumber": "0x5bc5f3",
      "from": "0x2fAFA5Ce36B88693b446F1d1BFa9A2fdB63b47A2",
      "to": null,
      "cumulativeGasUsed": "0x593967",
      "gasUsed": "0x87680",
      "contractAddress": "0x2BD311122823a95fd28f534814bd38C458948dC4",
      "logs": [
        {
          "address": "0x2BD311122823a95fd28f534814bd38C458948dC4",
          "topics": [
            "0xddf252ad1be2c89b69c2b068fc378daa952ba7f163c4a11628f55a4df523b3ef",
            "0x0000000000000000000000000000000000000000000000000000000000000000",
            "0x0000000000000000000000002fafa5ce36b88693b446f1d1bfa9a2fdb63b47a2"
          ],
          "data": "0x000000000000000000000000000000000000000000000000000016bcc41e9000",
          "blockHash": "0x4a8452525c02d1ea150ee445bd3f55a4f704d3d8acfbeb15d65905a539971a66",
          "blockNumber": "0x5bc5f3",
          "transactionHash": "0xbb0236adbe9a67db09ea454c386e2959568d68a4176db0f82d1eeaabb5a9d8d7",
          "transactionIndex": "0x11",
          "logIndex": "0xe",
          "removed": false
        }
      ],
      "status": "0x1",
      "logsBloom": "0x00000000000000000000000000000000000002000000000000000000000000000000000000000000000000000000000000000000000000000000000000000000000000000000000000100008000000000000000000000000000000000000004000000000020000200000000000400800000000000000000000000010000000000000000000000000000000000000000000000000000000000000000000000000000000000000000000000000000000000000000000000000000000000000000000000002000000000000002000000000000000000000000000000000000020000000000000000000000000000000000000000000000000000000000000000000",
      "type": "0x2",
      "effectiveGasPrice": "0xbc1dfcca"
    },
    {
      "transactionHash": "0x403247a46210b02aebb30e92bbc02579a1bba57924624760c0cb81cbf176247a",
      "transactionIndex": "0x12",
      "blockHash": "0x4a8452525c02d1ea150ee445bd3f55a4f704d3d8acfbeb15d65905a539971a66",
      "blockNumber": "0x5bc5f3",
      "from": "0x2fAFA5Ce36B88693b446F1d1BFa9A2fdB63b47A2",
      "to": null,
      "cumulativeGasUsed": "0x61b013",
      "gasUsed": "0x876ac",
      "contractAddress": "0xD2dE6032b0BC2aCC3D5a03Df8b024fA4FaC7B0a9",
      "logs": [
        {
          "address": "0xD2dE6032b0BC2aCC3D5a03Df8b024fA4FaC7B0a9",
          "topics": [
            "0xddf252ad1be2c89b69c2b068fc378daa952ba7f163c4a11628f55a4df523b3ef",
            "0x0000000000000000000000000000000000000000000000000000000000000000",
            "0x0000000000000000000000002fafa5ce36b88693b446f1d1bfa9a2fdb63b47a2"
          ],
          "data": "0x000000000000000000000000000000000000000000000000000016bcc41e9000",
          "blockHash": "0x4a8452525c02d1ea150ee445bd3f55a4f704d3d8acfbeb15d65905a539971a66",
          "blockNumber": "0x5bc5f3",
          "transactionHash": "0x403247a46210b02aebb30e92bbc02579a1bba57924624760c0cb81cbf176247a",
          "transactionIndex": "0x12",
          "logIndex": "0xf",
          "removed": false
        }
      ],
      "status": "0x1",
      "logsBloom": "0x00000000000000000000000000000000000000000000000000000010000000000000000000000000000000000000000000000000000000080000000000000000000000000000000000100008000000000000000000000000000000000000004000000000020000200000000000000800000000000000000000000010000000000000000000000000000000000000000000000000000000000000000000000000000000000000000000000000080000000000000000000000000000000000000000000002000000000000000000000000000000000000000000000000000020000000000000000000000000000000000000000000000000000000000000000000",
      "type": "0x2",
      "effectiveGasPrice": "0xbc1dfcca"
    },
    {
      "transactionHash": "0x10376b02c99ef399a47f6e9a5fd797edee68e64d8a3a85e2731f3073b3da2fef",
      "transactionIndex": "0x13",
      "blockHash": "0x4a8452525c02d1ea150ee445bd3f55a4f704d3d8acfbeb15d65905a539971a66",
      "blockNumber": "0x5bc5f3",
      "from": "0x2fAFA5Ce36B88693b446F1d1BFa9A2fdB63b47A2",
      "to": null,
      "cumulativeGasUsed": "0x6a26bf",
      "gasUsed": "0x876ac",
      "contractAddress": "0xd6fDaA3a7535372B568476c2B6ea1C11a16a1e44",
      "logs": [
        {
          "address": "0xd6fDaA3a7535372B568476c2B6ea1C11a16a1e44",
          "topics": [
            "0xddf252ad1be2c89b69c2b068fc378daa952ba7f163c4a11628f55a4df523b3ef",
            "0x0000000000000000000000000000000000000000000000000000000000000000",
            "0x0000000000000000000000002fafa5ce36b88693b446f1d1bfa9a2fdb63b47a2"
          ],
          "data": "0x000000000000000000000000000000000000000000000000000016bcc41e9000",
          "blockHash": "0x4a8452525c02d1ea150ee445bd3f55a4f704d3d8acfbeb15d65905a539971a66",
          "blockNumber": "0x5bc5f3",
          "transactionHash": "0x10376b02c99ef399a47f6e9a5fd797edee68e64d8a3a85e2731f3073b3da2fef",
          "transactionIndex": "0x13",
          "logIndex": "0x10",
          "removed": false
        }
      ],
      "status": "0x1",
      "logsBloom": "0x00000000000000000000000000000000000000000000000000000000000000000000000000000000000000000000000000000000000000000000000000000000000000000000000000100008000000000000000000000000000000000000004000000000020000200000000000000800000000000000000000000010000000000000000000000000000000000000000000000000000000000000000000000000000000000000000000000000000000000000000004000000000000000000000000000002000000000000000000000000020000000000000000000000000020000000001000000000000000000000000000000000000000000000000000000000",
      "type": "0x2",
      "effectiveGasPrice": "0xbc1dfcca"
    },
    {
      "transactionHash": "0xd569c09e3013b47bf6d682edf82cffa705d224f5294b6ed3cd4cd525f0ca95bd",
      "transactionIndex": "0x14",
      "blockHash": "0x4a8452525c02d1ea150ee445bd3f55a4f704d3d8acfbeb15d65905a539971a66",
      "blockNumber": "0x5bc5f3",
      "from": "0x2fAFA5Ce36B88693b446F1d1BFa9A2fdB63b47A2",
      "to": null,
      "cumulativeGasUsed": "0x729d6b",
      "gasUsed": "0x876ac",
      "contractAddress": "0x367D85aa4C908b5CC8a71373Ff6092C82740fF0e",
      "logs": [
        {
          "address": "0x367D85aa4C908b5CC8a71373Ff6092C82740fF0e",
          "topics": [
            "0xddf252ad1be2c89b69c2b068fc378daa952ba7f163c4a11628f55a4df523b3ef",
            "0x0000000000000000000000000000000000000000000000000000000000000000",
            "0x0000000000000000000000002fafa5ce36b88693b446f1d1bfa9a2fdb63b47a2"
          ],
          "data": "0x000000000000000000000000000000000000000000000000000016bcc41e9000",
          "blockHash": "0x4a8452525c02d1ea150ee445bd3f55a4f704d3d8acfbeb15d65905a539971a66",
          "blockNumber": "0x5bc5f3",
          "transactionHash": "0xd569c09e3013b47bf6d682edf82cffa705d224f5294b6ed3cd4cd525f0ca95bd",
          "transactionIndex": "0x14",
          "logIndex": "0x11",
          "removed": false
        }
      ],
      "status": "0x1",
      "logsBloom": "0x00000000000800000000000000000000000000000000000000000000000000000000000000000000000000000000000000000000000000000000000000000000000000000000000000100008000000000000000000000000000000000000004000000000020000200000000000000800000000000000020000000010000000000000000000000000000000000000000000000000000000000000000000000000000000000000000000000000000000000000000000000000000000000000000000000002000000000000000000000080000000000000000000000000000020000000000000000000000000000000000000000000000000000000000000000000",
      "type": "0x2",
      "effectiveGasPrice": "0xbc1dfcca"
    },
    {
      "transactionHash": "0xd1dcfba5398da3b9e93090586b38efeee7a79f298e593f74abe49b6b84c146bf",
      "transactionIndex": "0x15",
      "blockHash": "0x4a8452525c02d1ea150ee445bd3f55a4f704d3d8acfbeb15d65905a539971a66",
      "blockNumber": "0x5bc5f3",
      "from": "0x2fAFA5Ce36B88693b446F1d1BFa9A2fdB63b47A2",
      "to": "0x367D85aa4C908b5CC8a71373Ff6092C82740fF0e",
      "cumulativeGasUsed": "0x735276",
      "gasUsed": "0xb50b",
      "contractAddress": null,
      "logs": [
        {
          "address": "0x367D85aa4C908b5CC8a71373Ff6092C82740fF0e",
          "topics": [
            "0x8c5be1e5ebec7d5bd14f71427d1e84f3dd0314c0f7b2291e5b200ac8c7c3b925",
            "0x0000000000000000000000002fafa5ce36b88693b446f1d1bfa9a2fdb63b47a2",
            "0x0000000000000000000000005b73c5498c1e3b4dba84de0f1833c4a029d90519"
          ],
          "data": "0x000000000000000000000000000000000000000000000000000000012a05f200",
          "blockHash": "0x4a8452525c02d1ea150ee445bd3f55a4f704d3d8acfbeb15d65905a539971a66",
          "blockNumber": "0x5bc5f3",
          "transactionHash": "0xd1dcfba5398da3b9e93090586b38efeee7a79f298e593f74abe49b6b84c146bf",
          "transactionIndex": "0x15",
          "logIndex": "0x12",
          "removed": false
        }
      ],
      "status": "0x1",
      "logsBloom": "0x00000000000800000000000000000000000000000000000000000000000000000000000000000000000000000000000000000000000000000000000000200000000000000000000000100000000000000000000000000000000000000000004000000000000000200000000000000000008000000000020000000000000000000000000000000000000000000000000000000000000000000000000000000000020000000000000000000002000000000000000000000000000000000000000000000000000000000000000000000080000000000000000000000000000000000010000000000000000000000000000000000000000000000000000000000200",
      "type": "0x2",
      "effectiveGasPrice": "0xbc1dfcca"
    },
    {
      "transactionHash": "0xba4c3b6438739dfce0016a92991c0540d7aa9eab386027a2ce5faaa6cda19ed3",
      "transactionIndex": "0x16",
      "blockHash": "0x4a8452525c02d1ea150ee445bd3f55a4f704d3d8acfbeb15d65905a539971a66",
      "blockNumber": "0x5bc5f3",
      "from": "0x2fAFA5Ce36B88693b446F1d1BFa9A2fdB63b47A2",
      "to": "0xD2dE6032b0BC2aCC3D5a03Df8b024fA4FaC7B0a9",
      "cumulativeGasUsed": "0x740781",
      "gasUsed": "0xb50b",
      "contractAddress": null,
      "logs": [
        {
          "address": "0xD2dE6032b0BC2aCC3D5a03Df8b024fA4FaC7B0a9",
          "topics": [
            "0x8c5be1e5ebec7d5bd14f71427d1e84f3dd0314c0f7b2291e5b200ac8c7c3b925",
            "0x0000000000000000000000002fafa5ce36b88693b446f1d1bfa9a2fdb63b47a2",
            "0x0000000000000000000000005b73c5498c1e3b4dba84de0f1833c4a029d90519"
          ],
          "data": "0x000000000000000000000000000000000000000000000000000000012a05f200",
          "blockHash": "0x4a8452525c02d1ea150ee445bd3f55a4f704d3d8acfbeb15d65905a539971a66",
          "blockNumber": "0x5bc5f3",
          "transactionHash": "0xba4c3b6438739dfce0016a92991c0540d7aa9eab386027a2ce5faaa6cda19ed3",
          "transactionIndex": "0x16",
          "logIndex": "0x13",
          "removed": false
        }
      ],
      "status": "0x1",
      "logsBloom": "0x00000000000000000000000000000000000000000000000000000010000000000000000000000000000000000000000000000000000000080000000000200000000000000000000000100000000000000000000000000000000000000000004000000000000000200000000000000000008000000000000000000000000000000000000000000000000000000000000000000000000000000000000000000000020000000000000000000002080000000000000000000000000000000000000000000000000000000000000000000000000000000000000000000000000000000010000000000000000000000000000000000000000000000000000000000200",
      "type": "0x2",
      "effectiveGasPrice": "0xbc1dfcca"
    },
    {
      "transactionHash": "0x875e1e9f74a992a1a544ded2b09554532748c0316f0e07e9c8b47937605ef5da",
      "transactionIndex": "0x17",
      "blockHash": "0x4a8452525c02d1ea150ee445bd3f55a4f704d3d8acfbeb15d65905a539971a66",
      "blockNumber": "0x5bc5f3",
      "from": "0x2fAFA5Ce36B88693b446F1d1BFa9A2fdB63b47A2",
      "to": "0xd6fDaA3a7535372B568476c2B6ea1C11a16a1e44",
      "cumulativeGasUsed": "0x74bc8c",
      "gasUsed": "0xb50b",
      "contractAddress": null,
      "logs": [
        {
          "address": "0xd6fDaA3a7535372B568476c2B6ea1C11a16a1e44",
          "topics": [
            "0x8c5be1e5ebec7d5bd14f71427d1e84f3dd0314c0f7b2291e5b200ac8c7c3b925",
            "0x0000000000000000000000002fafa5ce36b88693b446f1d1bfa9a2fdb63b47a2",
            "0x0000000000000000000000005b73c5498c1e3b4dba84de0f1833c4a029d90519"
          ],
          "data": "0x000000000000000000000000000000000000000000000000000000012a05f200",
          "blockHash": "0x4a8452525c02d1ea150ee445bd3f55a4f704d3d8acfbeb15d65905a539971a66",
          "blockNumber": "0x5bc5f3",
          "transactionHash": "0x875e1e9f74a992a1a544ded2b09554532748c0316f0e07e9c8b47937605ef5da",
          "transactionIndex": "0x17",
          "logIndex": "0x14",
          "removed": false
        }
      ],
      "status": "0x1",
      "logsBloom": "0x00000000000000000000000000000000000000000000000000000000000000000000000000000000000000000000000000000000000000000000000000200000000000000000000000100000000000000000000000000000000000000000004000000000000000200000000000000000008000000000000000000000000000000000000000000000000000000000000000000000000000000000000000000000020000000000000000000002000000000000000004000000000000000000000000000000000000000000000000000000020000000000000000000000000000000010001000000000000000000000000000000000000000000000000000000200",
      "type": "0x2",
      "effectiveGasPrice": "0xbc1dfcca"
    },
    {
      "transactionHash": "0x860fd29b4370a3880691859201180d43bc6ff5b523b02d0292dd6650bfa50a55",
      "transactionIndex": "0x18",
      "blockHash": "0x4a8452525c02d1ea150ee445bd3f55a4f704d3d8acfbeb15d65905a539971a66",
      "blockNumber": "0x5bc5f3",
      "from": "0x2fAFA5Ce36B88693b446F1d1BFa9A2fdB63b47A2",
      "to": "0x2BD311122823a95fd28f534814bd38C458948dC4",
      "cumulativeGasUsed": "0x757197",
      "gasUsed": "0xb50b",
      "contractAddress": null,
      "logs": [
        {
          "address": "0x2BD311122823a95fd28f534814bd38C458948dC4",
          "topics": [
            "0x8c5be1e5ebec7d5bd14f71427d1e84f3dd0314c0f7b2291e5b200ac8c7c3b925",
            "0x0000000000000000000000002fafa5ce36b88693b446f1d1bfa9a2fdb63b47a2",
            "0x0000000000000000000000005b73c5498c1e3b4dba84de0f1833c4a029d90519"
          ],
          "data": "0x000000000000000000000000000000000000000000000000000000012a05f200",
          "blockHash": "0x4a8452525c02d1ea150ee445bd3f55a4f704d3d8acfbeb15d65905a539971a66",
          "blockNumber": "0x5bc5f3",
          "transactionHash": "0x860fd29b4370a3880691859201180d43bc6ff5b523b02d0292dd6650bfa50a55",
          "transactionIndex": "0x18",
          "logIndex": "0x15",
          "removed": false
        }
      ],
      "status": "0x1",
      "logsBloom": "0x00000000000000000000000000000000000002000000000000000000000000000000000000000000000000000000000000000000000000000000000000200000000000000000000000100000000000000000000000000000000000000000004000000000000000200000000000400000008000000000000000000000000000000000000000000000000000000000000000000000000000000000000000000000020000000000000000000002000000000000000000000000000000000000000000000000000000000000002000000000000000000000000000000000000000000010000000000000000000000000000000000000000000000000000000000200",
      "type": "0x2",
      "effectiveGasPrice": "0xbc1dfcca"
    },
    {
      "transactionHash": "0xd4a3fc2a9679f10d4e66e15f4b4dcefb205d8cfe8a067346ea25bcf97c083556",
      "transactionIndex": "0x19",
      "blockHash": "0x4a8452525c02d1ea150ee445bd3f55a4f704d3d8acfbeb15d65905a539971a66",
      "blockNumber": "0x5bc5f3",
      "from": "0x2fAFA5Ce36B88693b446F1d1BFa9A2fdB63b47A2",
      "to": "0x367D85aa4C908b5CC8a71373Ff6092C82740fF0e",
      "cumulativeGasUsed": "0x763b17",
      "gasUsed": "0xc980",
      "contractAddress": null,
      "logs": [
        {
          "address": "0x367D85aa4C908b5CC8a71373Ff6092C82740fF0e",
          "topics": [
            "0xddf252ad1be2c89b69c2b068fc378daa952ba7f163c4a11628f55a4df523b3ef",
            "0x0000000000000000000000002fafa5ce36b88693b446f1d1bfa9a2fdb63b47a2",
            "0x000000000000000000000000f3bc9fce01133bad3a46898bd91dee7a24d3bef2"
          ],
          "data": "0x000000000000000000000000000000000000000000000000000000003b9aca00",
          "blockHash": "0x4a8452525c02d1ea150ee445bd3f55a4f704d3d8acfbeb15d65905a539971a66",
          "blockNumber": "0x5bc5f3",
          "transactionHash": "0xd4a3fc2a9679f10d4e66e15f4b4dcefb205d8cfe8a067346ea25bcf97c083556",
          "transactionIndex": "0x19",
          "logIndex": "0x16",
          "removed": false
        }
      ],
      "status": "0x1",
      "logsBloom": "0x00000000000800000000000000000000000000000000000000000000000000000000000000000000000000000000000000000000000000000000000000000000000000000000000000100008000000000000000000000400000000000000004000000000000000200000000000000000000000000000020000100010000000000000000000000000000000000000000000000000000000000000000000000000000000000000000000000000000000000000000000000000000000000000000000000002000000000000000000000080000000000000000000000000000000000000000000002000000000000000000000000000000000000000000000000000",
      "type": "0x2",
      "effectiveGasPrice": "0xbc1dfcca"
    },
    {
      "transactionHash": "0x3707399c0b30beb25bcb0c8552c3146592bcb41c683a56848ec4fb3e2d3eac01",
      "transactionIndex": "0x1a",
      "blockHash": "0x4a8452525c02d1ea150ee445bd3f55a4f704d3d8acfbeb15d65905a539971a66",
      "blockNumber": "0x5bc5f3",
      "from": "0x2fAFA5Ce36B88693b446F1d1BFa9A2fdB63b47A2",
      "to": "0xD2dE6032b0BC2aCC3D5a03Df8b024fA4FaC7B0a9",
      "cumulativeGasUsed": "0x770497",
      "gasUsed": "0xc980",
      "contractAddress": null,
      "logs": [
        {
          "address": "0xD2dE6032b0BC2aCC3D5a03Df8b024fA4FaC7B0a9",
          "topics": [
            "0xddf252ad1be2c89b69c2b068fc378daa952ba7f163c4a11628f55a4df523b3ef",
            "0x0000000000000000000000002fafa5ce36b88693b446f1d1bfa9a2fdb63b47a2",
            "0x000000000000000000000000f3bc9fce01133bad3a46898bd91dee7a24d3bef2"
          ],
          "data": "0x000000000000000000000000000000000000000000000000000000003b9aca00",
          "blockHash": "0x4a8452525c02d1ea150ee445bd3f55a4f704d3d8acfbeb15d65905a539971a66",
          "blockNumber": "0x5bc5f3",
          "transactionHash": "0x3707399c0b30beb25bcb0c8552c3146592bcb41c683a56848ec4fb3e2d3eac01",
          "transactionIndex": "0x1a",
          "logIndex": "0x17",
          "removed": false
        }
      ],
      "status": "0x1",
      "logsBloom": "0x00000000000000000000000000000000000000000000000000000010000000000000000000000000000000000000000000000000000000080000000000000000000000000000000000100008000000000000000000000400000000000000004000000000000000200000000000000000000000000000000000100010000000000000000000000000000000000000000000000000000000000000000000000000000000000000000000000000080000000000000000000000000000000000000000000002000000000000000000000000000000000000000000000000000000000000000000002000000000000000000000000000000000000000000000000000",
      "type": "0x2",
      "effectiveGasPrice": "0xbc1dfcca"
    },
    {
      "transactionHash": "0xfde37d36d807374c4547cb699e982992e1e6edb3a877d5594b2c859a1f5f9c74",
      "transactionIndex": "0x1b",
      "blockHash": "0x4a8452525c02d1ea150ee445bd3f55a4f704d3d8acfbeb15d65905a539971a66",
      "blockNumber": "0x5bc5f3",
      "from": "0x2fAFA5Ce36B88693b446F1d1BFa9A2fdB63b47A2",
      "to": "0xd6fDaA3a7535372B568476c2B6ea1C11a16a1e44",
      "cumulativeGasUsed": "0x77ce17",
      "gasUsed": "0xc980",
      "contractAddress": null,
      "logs": [
        {
          "address": "0xd6fDaA3a7535372B568476c2B6ea1C11a16a1e44",
          "topics": [
            "0xddf252ad1be2c89b69c2b068fc378daa952ba7f163c4a11628f55a4df523b3ef",
            "0x0000000000000000000000002fafa5ce36b88693b446f1d1bfa9a2fdb63b47a2",
            "0x000000000000000000000000f3bc9fce01133bad3a46898bd91dee7a24d3bef2"
          ],
          "data": "0x000000000000000000000000000000000000000000000000000000003b9aca00",
          "blockHash": "0x4a8452525c02d1ea150ee445bd3f55a4f704d3d8acfbeb15d65905a539971a66",
          "blockNumber": "0x5bc5f3",
          "transactionHash": "0xfde37d36d807374c4547cb699e982992e1e6edb3a877d5594b2c859a1f5f9c74",
          "transactionIndex": "0x1b",
          "logIndex": "0x18",
          "removed": false
        }
      ],
      "status": "0x1",
      "logsBloom": "0x00000000000000000000000000000000000000000000000000000000000000000000000000000000000000000000000000000000000000000000000000000000000000000000000000100008000000000000000000000400000000000000004000000000000000200000000000000000000000000000000000100010000000000000000000000000000000000000000000000000000000000000000000000000000000000000000000000000000000000000000004000000000000000000000000000002000000000000000000000000020000000000000000000000000000000000001000002000000000000000000000000000000000000000000000000000",
      "type": "0x2",
      "effectiveGasPrice": "0xbc1dfcca"
    },
    {
      "transactionHash": "0x7b801389bae6257155dd9c2b5ced7a72601db3681d2b4150f32869b22a74aada",
      "transactionIndex": "0x1c",
      "blockHash": "0x4a8452525c02d1ea150ee445bd3f55a4f704d3d8acfbeb15d65905a539971a66",
      "blockNumber": "0x5bc5f3",
      "from": "0x2fAFA5Ce36B88693b446F1d1BFa9A2fdB63b47A2",
      "to": "0x2BD311122823a95fd28f534814bd38C458948dC4",
      "cumulativeGasUsed": "0x789797",
      "gasUsed": "0xc980",
      "contractAddress": null,
      "logs": [
        {
          "address": "0x2BD311122823a95fd28f534814bd38C458948dC4",
          "topics": [
            "0xddf252ad1be2c89b69c2b068fc378daa952ba7f163c4a11628f55a4df523b3ef",
            "0x0000000000000000000000002fafa5ce36b88693b446f1d1bfa9a2fdb63b47a2",
            "0x000000000000000000000000f3bc9fce01133bad3a46898bd91dee7a24d3bef2"
          ],
          "data": "0x000000000000000000000000000000000000000000000000000000003b9aca00",
          "blockHash": "0x4a8452525c02d1ea150ee445bd3f55a4f704d3d8acfbeb15d65905a539971a66",
          "blockNumber": "0x5bc5f3",
          "transactionHash": "0x7b801389bae6257155dd9c2b5ced7a72601db3681d2b4150f32869b22a74aada",
          "transactionIndex": "0x1c",
          "logIndex": "0x19",
          "removed": false
        }
      ],
      "status": "0x1",
      "logsBloom": "0x00000000000000000000000000000000000002000000000000000000000000000000000000000000000000000000000000000000000000000000000000000000000000000000000000100008000000000000000000000400000000000000004000000000000000200000000000400000000000000000000000100010000000000000000000000000000000000000000000000000000000000000000000000000000000000000000000000000000000000000000000000000000000000000000000000002000000000000002000000000000000000000000000000000000000000000000000002000000000000000000000000000000000000000000000000000",
      "type": "0x2",
      "effectiveGasPrice": "0xbc1dfcca"
    },
    {
      "transactionHash": "0x13cd53cc4dc78d954a4dc5cd663d6a6cdd3f0b48f7e2e420048cf6f24dd3fb2e",
      "transactionIndex": "0x1d",
      "blockHash": "0x4a8452525c02d1ea150ee445bd3f55a4f704d3d8acfbeb15d65905a539971a66",
      "blockNumber": "0x5bc5f3",
      "from": "0x2fAFA5Ce36B88693b446F1d1BFa9A2fdB63b47A2",
      "to": "0x367D85aa4C908b5CC8a71373Ff6092C82740fF0e",
      "cumulativeGasUsed": "0x796117",
      "gasUsed": "0xc980",
      "contractAddress": null,
      "logs": [
        {
          "address": "0x367D85aa4C908b5CC8a71373Ff6092C82740fF0e",
          "topics": [
            "0xddf252ad1be2c89b69c2b068fc378daa952ba7f163c4a11628f55a4df523b3ef",
            "0x0000000000000000000000002fafa5ce36b88693b446f1d1bfa9a2fdb63b47a2",
            "0x000000000000000000000000c7da10b318fe53b8fdd4c1612b98a44154e081dd"
          ],
          "data": "0x000000000000000000000000000000000000000000000000000000003b9aca00",
          "blockHash": "0x4a8452525c02d1ea150ee445bd3f55a4f704d3d8acfbeb15d65905a539971a66",
          "blockNumber": "0x5bc5f3",
          "transactionHash": "0x13cd53cc4dc78d954a4dc5cd663d6a6cdd3f0b48f7e2e420048cf6f24dd3fb2e",
          "transactionIndex": "0x1d",
          "logIndex": "0x1a",
          "removed": false
        }
      ],
      "status": "0x1",
      "logsBloom": "0x00000000000800000000000000000000000000000000000000000000000000000000000000000000000000000000000000000000000000000000000000000000000000000000040000100008000000000000000000000000000000000000004000000000000000200000000000000000000000000000020000000010000000000000000000000000000000000400000000000000000010000000000000000000000000000000000000000000000000000000000000000000000000000000000000000002000000000000000000000080000000000000000000000000000000000000000000000000000000000000000000000000000000000000000000000000",
      "type": "0x2",
      "effectiveGasPrice": "0xbc1dfcca"
    },
    {
      "transactionHash": "0x3552f4b150cb2c4a7023b628ca265c35b1076607137180cb7abea7de607cc09d",
      "transactionIndex": "0x1e",
      "blockHash": "0x4a8452525c02d1ea150ee445bd3f55a4f704d3d8acfbeb15d65905a539971a66",
      "blockNumber": "0x5bc5f3",
      "from": "0x2fAFA5Ce36B88693b446F1d1BFa9A2fdB63b47A2",
      "to": "0xD2dE6032b0BC2aCC3D5a03Df8b024fA4FaC7B0a9",
      "cumulativeGasUsed": "0x7a2a97",
      "gasUsed": "0xc980",
      "contractAddress": null,
      "logs": [
        {
          "address": "0xD2dE6032b0BC2aCC3D5a03Df8b024fA4FaC7B0a9",
          "topics": [
            "0xddf252ad1be2c89b69c2b068fc378daa952ba7f163c4a11628f55a4df523b3ef",
            "0x0000000000000000000000002fafa5ce36b88693b446f1d1bfa9a2fdb63b47a2",
            "0x000000000000000000000000c7da10b318fe53b8fdd4c1612b98a44154e081dd"
          ],
          "data": "0x000000000000000000000000000000000000000000000000000000003b9aca00",
          "blockHash": "0x4a8452525c02d1ea150ee445bd3f55a4f704d3d8acfbeb15d65905a539971a66",
          "blockNumber": "0x5bc5f3",
          "transactionHash": "0x3552f4b150cb2c4a7023b628ca265c35b1076607137180cb7abea7de607cc09d",
          "transactionIndex": "0x1e",
          "logIndex": "0x1b",
          "removed": false
        }
      ],
      "status": "0x1",
      "logsBloom": "0x00000000000000000000000000000000000000000000000000000010000000000000000000000000000000000000000000000000000000080000000000000000000000000000040000100008000000000000000000000000000000000000004000000000000000200000000000000000000000000000000000000010000000000000000000000000000000000400000000000000000010000000000000000000000000000000000000000000080000000000000000000000000000000000000000000002000000000000000000000000000000000000000000000000000000000000000000000000000000000000000000000000000000000000000000000000",
      "type": "0x2",
      "effectiveGasPrice": "0xbc1dfcca"
    },
    {
      "transactionHash": "0x5352ac3b931f34230313a7dbd894995a584ec444d2f587885def3a812725cfac",
      "transactionIndex": "0x1f",
      "blockHash": "0x4a8452525c02d1ea150ee445bd3f55a4f704d3d8acfbeb15d65905a539971a66",
      "blockNumber": "0x5bc5f3",
      "from": "0x2fAFA5Ce36B88693b446F1d1BFa9A2fdB63b47A2",
      "to": "0xd6fDaA3a7535372B568476c2B6ea1C11a16a1e44",
      "cumulativeGasUsed": "0x7af417",
      "gasUsed": "0xc980",
      "contractAddress": null,
      "logs": [
        {
          "address": "0xd6fDaA3a7535372B568476c2B6ea1C11a16a1e44",
          "topics": [
            "0xddf252ad1be2c89b69c2b068fc378daa952ba7f163c4a11628f55a4df523b3ef",
            "0x0000000000000000000000002fafa5ce36b88693b446f1d1bfa9a2fdb63b47a2",
            "0x000000000000000000000000c7da10b318fe53b8fdd4c1612b98a44154e081dd"
          ],
          "data": "0x000000000000000000000000000000000000000000000000000000003b9aca00",
          "blockHash": "0x4a8452525c02d1ea150ee445bd3f55a4f704d3d8acfbeb15d65905a539971a66",
          "blockNumber": "0x5bc5f3",
          "transactionHash": "0x5352ac3b931f34230313a7dbd894995a584ec444d2f587885def3a812725cfac",
          "transactionIndex": "0x1f",
          "logIndex": "0x1c",
          "removed": false
        }
      ],
      "status": "0x1",
      "logsBloom": "0x00000000000000000000000000000000000000000000000000000000000000000000000000000000000000000000000000000000000000000000000000000000000000000000040000100008000000000000000000000000000000000000004000000000000000200000000000000000000000000000000000000010000000000000000000000000000000000400000000000000000010000000000000000000000000000000000000000000000000000000000004000000000000000000000000000002000000000000000000000000020000000000000000000000000000000000001000000000000000000000000000000000000000000000000000000000",
      "type": "0x2",
      "effectiveGasPrice": "0xbc1dfcca"
    },
    {
      "transactionHash": "0xb8e0523ca9663aaa621c83a2d4d839063f49d229a225e04bdd31297e98002b61",
      "transactionIndex": "0x20",
      "blockHash": "0x4a8452525c02d1ea150ee445bd3f55a4f704d3d8acfbeb15d65905a539971a66",
      "blockNumber": "0x5bc5f3",
      "from": "0x2fAFA5Ce36B88693b446F1d1BFa9A2fdB63b47A2",
      "to": "0x2BD311122823a95fd28f534814bd38C458948dC4",
      "cumulativeGasUsed": "0x7bbd97",
      "gasUsed": "0xc980",
      "contractAddress": null,
      "logs": [
        {
          "address": "0x2BD311122823a95fd28f534814bd38C458948dC4",
          "topics": [
            "0xddf252ad1be2c89b69c2b068fc378daa952ba7f163c4a11628f55a4df523b3ef",
            "0x0000000000000000000000002fafa5ce36b88693b446f1d1bfa9a2fdb63b47a2",
            "0x000000000000000000000000c7da10b318fe53b8fdd4c1612b98a44154e081dd"
          ],
          "data": "0x000000000000000000000000000000000000000000000000000000003b9aca00",
          "blockHash": "0x4a8452525c02d1ea150ee445bd3f55a4f704d3d8acfbeb15d65905a539971a66",
          "blockNumber": "0x5bc5f3",
          "transactionHash": "0xb8e0523ca9663aaa621c83a2d4d839063f49d229a225e04bdd31297e98002b61",
          "transactionIndex": "0x20",
          "logIndex": "0x1d",
          "removed": false
        }
      ],
      "status": "0x1",
      "logsBloom": "0x00000000000000000000000000000000000002000000000000000000000000000000000000000000000000000000000000000000000000000000000000000000000000000000040000100008000000000000000000000000000000000000004000000000000000200000000000400000000000000000000000000010000000000000000000000000000000000400000000000000000010000000000000000000000000000000000000000000000000000000000000000000000000000000000000000002000000000000002000000000000000000000000000000000000000000000000000000000000000000000000000000000000000000000000000000000",
      "type": "0x2",
      "effectiveGasPrice": "0xbc1dfcca"
    },
    {
      "transactionHash": "0x85582946579365a217a7ee99b097ff5428accece16c5bf28adc7f7b087dcc9af",
      "transactionIndex": "0x21",
      "blockHash": "0x4a8452525c02d1ea150ee445bd3f55a4f704d3d8acfbeb15d65905a539971a66",
      "blockNumber": "0x5bc5f3",
      "from": "0x2fAFA5Ce36B88693b446F1d1BFa9A2fdB63b47A2",
      "to": "0x367D85aa4C908b5CC8a71373Ff6092C82740fF0e",
      "cumulativeGasUsed": "0x7c8717",
      "gasUsed": "0xc980",
      "contractAddress": null,
      "logs": [
        {
          "address": "0x367D85aa4C908b5CC8a71373Ff6092C82740fF0e",
          "topics": [
            "0xddf252ad1be2c89b69c2b068fc378daa952ba7f163c4a11628f55a4df523b3ef",
            "0x0000000000000000000000002fafa5ce36b88693b446f1d1bfa9a2fdb63b47a2",
            "0x0000000000000000000000009e255510fa8f84d15bb196590a43e847e8d609a3"
          ],
          "data": "0x000000000000000000000000000000000000000000000000000000003b9aca00",
          "blockHash": "0x4a8452525c02d1ea150ee445bd3f55a4f704d3d8acfbeb15d65905a539971a66",
          "blockNumber": "0x5bc5f3",
          "transactionHash": "0x85582946579365a217a7ee99b097ff5428accece16c5bf28adc7f7b087dcc9af",
          "transactionIndex": "0x21",
          "logIndex": "0x1e",
          "removed": false
        }
      ],
      "status": "0x1",
      "logsBloom": "0x00000000000800000000000000000000000000000000000000000000000000000000000000000000000000000000000000040800000000000000000000000000000000000000000000100008000000000000000000000000000000000000004000000000000000200200000000000000000000000000020000000010000000000000000000000000000000000000000000000000000000000000000000000000000000000000000000000000000000000000000000000000000000000000000000000002000000000000000000000080000000000000000000000000000000000000000000000000000000000000000000000000000000000000000000000000",
      "type": "0x2",
      "effectiveGasPrice": "0xbc1dfcca"
    },
    {
      "transactionHash": "0x8e085811dbf8f51ba38ef9e8b7a7305b9cd8fee4695d3a48ac2fa4f2627d2922",
      "transactionIndex": "0x22",
      "blockHash": "0x4a8452525c02d1ea150ee445bd3f55a4f704d3d8acfbeb15d65905a539971a66",
      "blockNumber": "0x5bc5f3",
      "from": "0x2fAFA5Ce36B88693b446F1d1BFa9A2fdB63b47A2",
      "to": "0xD2dE6032b0BC2aCC3D5a03Df8b024fA4FaC7B0a9",
      "cumulativeGasUsed": "0x7d5097",
      "gasUsed": "0xc980",
      "contractAddress": null,
      "logs": [
        {
          "address": "0xD2dE6032b0BC2aCC3D5a03Df8b024fA4FaC7B0a9",
          "topics": [
            "0xddf252ad1be2c89b69c2b068fc378daa952ba7f163c4a11628f55a4df523b3ef",
            "0x0000000000000000000000002fafa5ce36b88693b446f1d1bfa9a2fdb63b47a2",
            "0x0000000000000000000000009e255510fa8f84d15bb196590a43e847e8d609a3"
          ],
          "data": "0x000000000000000000000000000000000000000000000000000000003b9aca00",
          "blockHash": "0x4a8452525c02d1ea150ee445bd3f55a4f704d3d8acfbeb15d65905a539971a66",
          "blockNumber": "0x5bc5f3",
          "transactionHash": "0x8e085811dbf8f51ba38ef9e8b7a7305b9cd8fee4695d3a48ac2fa4f2627d2922",
          "transactionIndex": "0x22",
          "logIndex": "0x1f",
          "removed": false
        }
      ],
      "status": "0x1",
      "logsBloom": "0x00000000000000000000000000000000000000000000000000000010000000000000000000000000000000000000000000040800000000080000000000000000000000000000000000100008000000000000000000000000000000000000004000000000000000200200000000000000000000000000000000000010000000000000000000000000000000000000000000000000000000000000000000000000000000000000000000000000080000000000000000000000000000000000000000000002000000000000000000000000000000000000000000000000000000000000000000000000000000000000000000000000000000000000000000000000",
      "type": "0x2",
      "effectiveGasPrice": "0xbc1dfcca"
    },
    {
      "transactionHash": "0xe64fc0d3457f6e226dc75e54599e2cc1ac3a713f9d295fad273fecd2e4229e70",
      "transactionIndex": "0x23",
      "blockHash": "0x4a8452525c02d1ea150ee445bd3f55a4f704d3d8acfbeb15d65905a539971a66",
      "blockNumber": "0x5bc5f3",
      "from": "0x2fAFA5Ce36B88693b446F1d1BFa9A2fdB63b47A2",
      "to": "0xd6fDaA3a7535372B568476c2B6ea1C11a16a1e44",
      "cumulativeGasUsed": "0x7e1a17",
      "gasUsed": "0xc980",
      "contractAddress": null,
      "logs": [
        {
          "address": "0xd6fDaA3a7535372B568476c2B6ea1C11a16a1e44",
          "topics": [
            "0xddf252ad1be2c89b69c2b068fc378daa952ba7f163c4a11628f55a4df523b3ef",
            "0x0000000000000000000000002fafa5ce36b88693b446f1d1bfa9a2fdb63b47a2",
            "0x0000000000000000000000009e255510fa8f84d15bb196590a43e847e8d609a3"
          ],
          "data": "0x000000000000000000000000000000000000000000000000000000003b9aca00",
          "blockHash": "0x4a8452525c02d1ea150ee445bd3f55a4f704d3d8acfbeb15d65905a539971a66",
          "blockNumber": "0x5bc5f3",
          "transactionHash": "0xe64fc0d3457f6e226dc75e54599e2cc1ac3a713f9d295fad273fecd2e4229e70",
          "transactionIndex": "0x23",
          "logIndex": "0x20",
          "removed": false
        }
      ],
      "status": "0x1",
      "logsBloom": "0x00000000000000000000000000000000000000000000000000000000000000000000000000000000000000000000000000040800000000000000000000000000000000000000000000100008000000000000000000000000000000000000004000000000000000200200000000000000000000000000000000000010000000000000000000000000000000000000000000000000000000000000000000000000000000000000000000000000000000000000000004000000000000000000000000000002000000000000000000000000020000000000000000000000000000000000001000000000000000000000000000000000000000000000000000000000",
      "type": "0x2",
      "effectiveGasPrice": "0xbc1dfcca"
    },
    {
      "transactionHash": "0x18374ba75ec6ea7ce669ca69d2f1a357ceeea784970d77bac1c5aa0f65d09ce3",
      "transactionIndex": "0x24",
      "blockHash": "0x4a8452525c02d1ea150ee445bd3f55a4f704d3d8acfbeb15d65905a539971a66",
      "blockNumber": "0x5bc5f3",
      "from": "0x2fAFA5Ce36B88693b446F1d1BFa9A2fdB63b47A2",
      "to": "0x2BD311122823a95fd28f534814bd38C458948dC4",
      "cumulativeGasUsed": "0x7ee397",
      "gasUsed": "0xc980",
      "contractAddress": null,
      "logs": [
        {
          "address": "0x2BD311122823a95fd28f534814bd38C458948dC4",
          "topics": [
            "0xddf252ad1be2c89b69c2b068fc378daa952ba7f163c4a11628f55a4df523b3ef",
            "0x0000000000000000000000002fafa5ce36b88693b446f1d1bfa9a2fdb63b47a2",
            "0x0000000000000000000000009e255510fa8f84d15bb196590a43e847e8d609a3"
          ],
          "data": "0x000000000000000000000000000000000000000000000000000000003b9aca00",
          "blockHash": "0x4a8452525c02d1ea150ee445bd3f55a4f704d3d8acfbeb15d65905a539971a66",
          "blockNumber": "0x5bc5f3",
          "transactionHash": "0x18374ba75ec6ea7ce669ca69d2f1a357ceeea784970d77bac1c5aa0f65d09ce3",
          "transactionIndex": "0x24",
          "logIndex": "0x21",
          "removed": false
        }
      ],
      "status": "0x1",
      "logsBloom": "0x00000000000000000000000000000000000002000000000000000000000000000000000000000000000000000000000000040800000000000000000000000000000000000000000000100008000000000000000000000000000000000000004000000000000000200200000000400000000000000000000000000010000000000000000000000000000000000000000000000000000000000000000000000000000000000000000000000000000000000000000000000000000000000000000000000002000000000000002000000000000000000000000000000000000000000000000000000000000000000000000000000000000000000000000000000000",
      "type": "0x2",
      "effectiveGasPrice": "0xbc1dfcca"
    },
    {
      "transactionHash": "0x2b7fb6e99ed6f8c491e755dc38f2674e6625b6f09c0a5c500d24f1fad0c64a19",
      "transactionIndex": "0x25",
      "blockHash": "0x4a8452525c02d1ea150ee445bd3f55a4f704d3d8acfbeb15d65905a539971a66",
      "blockNumber": "0x5bc5f3",
      "from": "0x2fAFA5Ce36B88693b446F1d1BFa9A2fdB63b47A2",
      "to": "0x367D85aa4C908b5CC8a71373Ff6092C82740fF0e",
      "cumulativeGasUsed": "0x7fad17",
      "gasUsed": "0xc980",
      "contractAddress": null,
      "logs": [
        {
          "address": "0x367D85aa4C908b5CC8a71373Ff6092C82740fF0e",
          "topics": [
            "0xddf252ad1be2c89b69c2b068fc378daa952ba7f163c4a11628f55a4df523b3ef",
            "0x0000000000000000000000002fafa5ce36b88693b446f1d1bfa9a2fdb63b47a2",
            "0x00000000000000000000000073d720768cd18e1a9473d874f064b08e1a5037f1"
          ],
          "data": "0x000000000000000000000000000000000000000000000000000000003b9aca00",
          "blockHash": "0x4a8452525c02d1ea150ee445bd3f55a4f704d3d8acfbeb15d65905a539971a66",
          "blockNumber": "0x5bc5f3",
          "transactionHash": "0x2b7fb6e99ed6f8c491e755dc38f2674e6625b6f09c0a5c500d24f1fad0c64a19",
          "transactionIndex": "0x25",
          "logIndex": "0x22",
          "removed": false
        }
      ],
      "status": "0x1",
      "logsBloom": "0x00000000000800000000000000000000000000000000000000000000000000000000000000000000000000000000000000000000000000000000000000000000000000000000004000100008000000000000000000000000000000000200004000000000000000200000000000000000000000000000020000000010000000000000000000000000000000000000000000000000000000000000100000000000000000000000000000000000000000000000000000000000000000000000000000000002000000000000000000000080000000000000000000000000000000000000000000000000000000000000000000000000000000000000000000000000",
      "type": "0x2",
      "effectiveGasPrice": "0xbc1dfcca"
    },
    {
      "transactionHash": "0x602438333be1a675bf1d34b6e453efafeeb809669df77d0805d865c34455820d",
      "transactionIndex": "0x26",
      "blockHash": "0x4a8452525c02d1ea150ee445bd3f55a4f704d3d8acfbeb15d65905a539971a66",
      "blockNumber": "0x5bc5f3",
      "from": "0x2fAFA5Ce36B88693b446F1d1BFa9A2fdB63b47A2",
      "to": "0xD2dE6032b0BC2aCC3D5a03Df8b024fA4FaC7B0a9",
      "cumulativeGasUsed": "0x807697",
      "gasUsed": "0xc980",
      "contractAddress": null,
      "logs": [
        {
          "address": "0xD2dE6032b0BC2aCC3D5a03Df8b024fA4FaC7B0a9",
          "topics": [
            "0xddf252ad1be2c89b69c2b068fc378daa952ba7f163c4a11628f55a4df523b3ef",
            "0x0000000000000000000000002fafa5ce36b88693b446f1d1bfa9a2fdb63b47a2",
            "0x00000000000000000000000073d720768cd18e1a9473d874f064b08e1a5037f1"
          ],
          "data": "0x000000000000000000000000000000000000000000000000000000003b9aca00",
          "blockHash": "0x4a8452525c02d1ea150ee445bd3f55a4f704d3d8acfbeb15d65905a539971a66",
          "blockNumber": "0x5bc5f3",
          "transactionHash": "0x602438333be1a675bf1d34b6e453efafeeb809669df77d0805d865c34455820d",
          "transactionIndex": "0x26",
          "logIndex": "0x23",
          "removed": false
        }
      ],
      "status": "0x1",
      "logsBloom": "0x00000000000000000000000000000000000000000000000000000010000000000000000000000000000000000000000000000000000000080000000000000000000000000000004000100008000000000000000000000000000000000200004000000000000000200000000000000000000000000000000000000010000000000000000000000000000000000000000000000000000000000000100000000000000000000000000000000000080000000000000000000000000000000000000000000002000000000000000000000000000000000000000000000000000000000000000000000000000000000000000000000000000000000000000000000000",
      "type": "0x2",
      "effectiveGasPrice": "0xbc1dfcca"
    },
    {
      "transactionHash": "0xfc636a4282415f0586fff3ff94a8feb7b2bcf87e7217144e3e135ff9fcf57c2b",
      "transactionIndex": "0x27",
      "blockHash": "0x4a8452525c02d1ea150ee445bd3f55a4f704d3d8acfbeb15d65905a539971a66",
      "blockNumber": "0x5bc5f3",
      "from": "0x2fAFA5Ce36B88693b446F1d1BFa9A2fdB63b47A2",
      "to": "0xd6fDaA3a7535372B568476c2B6ea1C11a16a1e44",
      "cumulativeGasUsed": "0x814017",
      "gasUsed": "0xc980",
      "contractAddress": null,
      "logs": [
        {
          "address": "0xd6fDaA3a7535372B568476c2B6ea1C11a16a1e44",
          "topics": [
            "0xddf252ad1be2c89b69c2b068fc378daa952ba7f163c4a11628f55a4df523b3ef",
            "0x0000000000000000000000002fafa5ce36b88693b446f1d1bfa9a2fdb63b47a2",
            "0x00000000000000000000000073d720768cd18e1a9473d874f064b08e1a5037f1"
          ],
          "data": "0x000000000000000000000000000000000000000000000000000000003b9aca00",
          "blockHash": "0x4a8452525c02d1ea150ee445bd3f55a4f704d3d8acfbeb15d65905a539971a66",
          "blockNumber": "0x5bc5f3",
          "transactionHash": "0xfc636a4282415f0586fff3ff94a8feb7b2bcf87e7217144e3e135ff9fcf57c2b",
          "transactionIndex": "0x27",
          "logIndex": "0x24",
          "removed": false
        }
      ],
      "status": "0x1",
      "logsBloom": "0x00000000000000000000000000000000000000000000000000000000000000000000000000000000000000000000000000000000000000000000000000000000000000000000004000100008000000000000000000000000000000000200004000000000000000200000000000000000000000000000000000000010000000000000000000000000000000000000000000000000000000000000100000000000000000000000000000000000000000000000000004000000000000000000000000000002000000000000000000000000020000000000000000000000000000000000001000000000000000000000000000000000000000000000000000000000",
      "type": "0x2",
      "effectiveGasPrice": "0xbc1dfcca"
    },
    {
      "transactionHash": "0x0f049cc0b63b3de53a64cd4ecb16b5d3007ad90d3dfd76c84eec389b10c7f7f3",
      "transactionIndex": "0x28",
      "blockHash": "0x4a8452525c02d1ea150ee445bd3f55a4f704d3d8acfbeb15d65905a539971a66",
      "blockNumber": "0x5bc5f3",
      "from": "0x2fAFA5Ce36B88693b446F1d1BFa9A2fdB63b47A2",
      "to": "0x2BD311122823a95fd28f534814bd38C458948dC4",
      "cumulativeGasUsed": "0x820997",
      "gasUsed": "0xc980",
      "contractAddress": null,
      "logs": [
        {
          "address": "0x2BD311122823a95fd28f534814bd38C458948dC4",
          "topics": [
            "0xddf252ad1be2c89b69c2b068fc378daa952ba7f163c4a11628f55a4df523b3ef",
            "0x0000000000000000000000002fafa5ce36b88693b446f1d1bfa9a2fdb63b47a2",
            "0x00000000000000000000000073d720768cd18e1a9473d874f064b08e1a5037f1"
          ],
          "data": "0x000000000000000000000000000000000000000000000000000000003b9aca00",
          "blockHash": "0x4a8452525c02d1ea150ee445bd3f55a4f704d3d8acfbeb15d65905a539971a66",
          "blockNumber": "0x5bc5f3",
          "transactionHash": "0x0f049cc0b63b3de53a64cd4ecb16b5d3007ad90d3dfd76c84eec389b10c7f7f3",
          "transactionIndex": "0x28",
          "logIndex": "0x25",
          "removed": false
        }
      ],
      "status": "0x1",
      "logsBloom": "0x00000000000000000000000000000000000002000000000000000000000000000000000000000000000000000000000000000000000000000000000000000000000000000000004000100008000000000000000000000000000000000200004000000000000000200000000000400000000000000000000000000010000000000000000000000000000000000000000000000000000000000000100000000000000000000000000000000000000000000000000000000000000000000000000000000002000000000000002000000000000000000000000000000000000000000000000000000000000000000000000000000000000000000000000000000000",
      "type": "0x2",
      "effectiveGasPrice": "0xbc1dfcca"
    }
  ],
  "libraries": [],
  "pending": [],
  "returns": {},
  "timestamp": 1717185643,
  "chain": 11155111,
  "commit": "5c2aaa95"
}