{
  "transactions": [
    {
      "hash": "0xffc570f9fc46759b47d8c68800f4f402ec9dce76094e910f6c2de0e92aeadb26",
      "transactionType": "CREATE",
      "contractName": "mockDAI",
      "contractAddress": "0x00c47CE0Ab494eF4e7356406e53d780Df7C6e29E",
      "function": null,
      "arguments": [
        "0x2fAFA5Ce36B88693b446F1d1BFa9A2fdB63b47A2"
      ],
      "transaction": {
        "type": "0x02",
        "from": "0x2fafa5ce36b88693b446f1d1bfa9a2fdb63b47a2",
        "gas": "0xb19f9",
        "value": "0x0",
        "data": "0x60806040523480156200001157600080fd5b5060405162000b3e38038062000b3e833981016040819052620000349162000228565b604051806040016040528060078152602001666d6f636b44414960c81b815250604051806040016040528060048152602001636d44414960e01b815250816003908162000082919062000301565b50600462000091828262000301565b505050620000ac816516bcc41e9000620000b360201b60201c565b50620003f5565b6001600160a01b038216620000e35760405163ec442f0560e01b8152600060048201526024015b60405180910390fd5b620000f160008383620000f5565b5050565b6001600160a01b03831662000124578060026000828254620001189190620003cd565b90915550620001989050565b6001600160a01b03831660009081526020819052604090205481811015620001795760405163391434e360e21b81526001600160a01b03851660048201526024810182905260448101839052606401620000da565b6001600160a01b03841660009081526020819052604090209082900390555b6001600160a01b038216620001b657600280548290039055620001d5565b6001600160a01b03821660009081526020819052604090208054820190555b816001600160a01b0316836001600160a01b03167fddf252ad1be2c89b69c2b068fc378daa952ba7f163c4a11628f55a4df523b3ef836040516200021b91815260200190565b60405180910390a3505050565b6000602082840312156200023b57600080fd5b81516001600160a01b03811681146200025357600080fd5b9392505050565b634e487b7160e01b600052604160045260246000fd5b600181811c908216806200028557607f821691505b602082108103620002a657634e487b7160e01b600052602260045260246000fd5b50919050565b601f821115620002fc576000816000526020600020601f850160051c81016020861015620002d75750805b601f850160051c820191505b81811015620002f857828155600101620002e3565b5050505b505050565b81516001600160401b038111156200031d576200031d6200025a565b62000335816200032e845462000270565b84620002ac565b602080601f8311600181146200036d5760008415620003545750858301515b600019600386901b1c1916600185901b178555620002f8565b600085815260208120601f198616915b828110156200039e578886015182559484019460019091019084016200037d565b5085821015620003bd5787850151600019600388901b60f8161c191681555b5050505050600190811b01905550565b80820180821115620003ef57634e487b7160e01b600052601160045260246000fd5b92915050565b61073980620004056000396000f3fe608060405234801561001057600080fd5b506004361061009e5760003560e01c806370a082311161006657806370a082311461011e57806395d89b4114610147578063a9059cbb1461014f578063dd62ed3e14610162578063fa69dc661461019b57600080fd5b806306fdde03146100a3578063095ea7b3146100c157806318160ddd146100e457806323b872dd146100f6578063313ce56714610109575b600080fd5b6100ab6101a2565b6040516100b89190610582565b60405180910390f35b6100d46100cf3660046105ed565b610234565b60405190151581526020016100b8565b6002545b6040519081526020016100b8565b6100d4610104366004610617565b61024e565b60125b60405160ff90911681526020016100b8565b6100e861012c366004610653565b6001600160a01b031660009081526020819052604090205490565b6100ab610272565b6100d461015d3660046105ed565b610281565b6100e8610170366004610675565b6001600160a01b03918216600090815260016020908152604080832093909416825291909152205490565b600661010c565b6060600380546101b1906106a8565b80601f01602080910402602001604051908101604052809291908181526020018280546101dd906106a8565b801561022a5780601f106101ff5761010080835404028352916020019161022a565b820191906000526020600020905b81548152906001019060200180831161020d57829003601f168201915b5050505050905090565b60003361024281858561028f565b60019150505b92915050565b60003361025c8582856102a1565b610267858585610324565b506001949350505050565b6060600480546101b1906106a8565b600033610242818585610324565b61029c8383836001610383565b505050565b6001600160a01b03838116600090815260016020908152604080832093861683529290522054600019811461031e578181101561030f57604051637dc7a0d960e11b81526001600160a01b038416600482015260248101829052604481018390526064015b60405180910390fd5b61031e84848484036000610383565b50505050565b6001600160a01b03831661034e57604051634b637e8f60e11b815260006004820152602401610306565b6001600160a01b0382166103785760405163ec442f0560e01b815260006004820152602401610306565b61029c838383610458565b6001600160a01b0384166103ad5760405163e602df0560e01b815260006004820152602401610306565b6001600160a01b0383166103d757604051634a1406b160e11b815260006004820152602401610306565b6001600160a01b038085166000908152600160209081526040808320938716835292905220829055801561031e57826001600160a01b0316846001600160a01b03167f8c5be1e5ebec7d5bd14f71427d1e84f3dd0314c0f7b2291e5b200ac8c7c3b9258460405161044a91815260200190565b60405180910390a350505050565b6001600160a01b03831661048357806002600082825461047891906106e2565b909155506104f59050565b6001600160a01b038316600090815260208190526040902054818110156104d65760405163391434e360e21b81526001600160a01b03851660048201526024810182905260448101839052606401610306565b6001600160a01b03841660009081526020819052604090209082900390555b6001600160a01b03821661051157600280548290039055610530565b6001600160a01b03821660009081526020819052604090208054820190555b816001600160a01b0316836001600160a01b03167fddf252ad1be2c89b69c2b068fc378daa952ba7f163c4a11628f55a4df523b3ef8360405161057591815260200190565b60405180910390a3505050565b60006020808352835180602085015260005b818110156105b057858101830151858201604001528201610594565b506000604082860101526040601f19601f8301168501019250505092915050565b80356001600160a01b03811681146105e857600080fd5b919050565b6000806040838503121561060057600080fd5b610609836105d1565b946020939093013593505050565b60008060006060848603121561062c57600080fd5b610635846105d1565b9250610643602085016105d1565b9150604084013590509250925092565b60006020828403121561066557600080fd5b61066e826105d1565b9392505050565b6000806040838503121561068857600080fd5b610691836105d1565b915061069f602084016105d1565b90509250929050565b600181811c908216806106bc57607f821691505b6020821081036106dc57634e487b7160e01b600052602260045260246000fd5b50919050565b8082018082111561024857634e487b7160e01b600052601160045260246000fdfea2646970667358221220608cb6cb0a85eaf33008ed16d98a14c166b31bd8d290de274b6854d8979909c364736f6c634300081700330000000000000000000000002fafa5ce36b88693b446f1d1bfa9a2fdb63b47a2",
        "nonce": "0xe",
        "accessList": []
      },
      "additionalContracts": [],
      "isFixedGasLimit": false
    },
    {
      "hash": "0xc19cdaa7c4b1d87b6910c1750c224261485761caac171395b4f94264d011edf6",
      "transactionType": "CREATE",
      "contractName": "mockUSDC",
      "contractAddress": "0x8591F9D2E810360639794EB2D38Cb8dcB5F71F73",
      "function": null,
      "arguments": [
        "0x2fAFA5Ce36B88693b446F1d1BFa9A2fdB63b47A2"
      ],
      "transaction": {
        "type": "0x02",
        "from": "0x2fafa5ce36b88693b446f1d1bfa9a2fdb63b47a2",
        "gas": "0xb1a22",
        "value": "0x0",
        "data": "0x60806040523480156200001157600080fd5b5060405162000b4038038062000b4083398101604081905262000034916200022a565b604051806040016040528060088152602001676d6f636b5553444360c01b815250604051806040016040528060058152602001646d5553444360d81b815250816003908162000084919062000303565b50600462000093828262000303565b505050620000ae816516bcc41e9000620000b560201b60201c565b50620003f7565b6001600160a01b038216620000e55760405163ec442f0560e01b8152600060048201526024015b60405180910390fd5b620000f360008383620000f7565b5050565b6001600160a01b038316620001265780600260008282546200011a9190620003cf565b909155506200019a9050565b6001600160a01b038316600090815260208190526040902054818110156200017b5760405163391434e360e21b81526001600160a01b03851660048201526024810182905260448101839052606401620000dc565b6001600160a01b03841660009081526020819052604090209082900390555b6001600160a01b038216620001b857600280548290039055620001d7565b6001600160a01b03821660009081526020819052604090208054820190555b816001600160a01b0316836001600160a01b03167fddf252ad1be2c89b69c2b068fc378daa952ba7f163c4a11628f55a4df523b3ef836040516200021d91815260200190565b60405180910390a3505050565b6000602082840312156200023d57600080fd5b81516001600160a01b03811681146200025557600080fd5b9392505050565b634e487b7160e01b600052604160045260246000fd5b600181811c908216806200028757607f821691505b602082108103620002a857634e487b7160e01b600052602260045260246000fd5b50919050565b601f821115620002fe576000816000526020600020601f850160051c81016020861015620002d95750805b601f850160051c820191505b81811015620002fa57828155600101620002e5565b5050505b505050565b81516001600160401b038111156200031f576200031f6200025c565b620003378162000330845462000272565b84620002ae565b602080601f8311600181146200036f5760008415620003565750858301515b600019600386901b1c1916600185901b178555620002fa565b600085815260208120601f198616915b82811015620003a0578886015182559484019460019091019084016200037f565b5085821015620003bf5787850151600019600388901b60f8161c191681555b5050505050600190811b01905550565b80820180821115620003f157634e487b7160e01b600052601160045260246000fd5b92915050565b61073980620004076000396000f3fe608060405234801561001057600080fd5b506004361061009e5760003560e01c806370a082311161006657806370a082311461011e578063831502cc1461014757806395d89b411461014e578063a9059cbb14610156578063dd62ed3e1461016957600080fd5b806306fdde03146100a3578063095ea7b3146100c157806318160ddd146100e457806323b872dd146100f6578063313ce56714610109575b600080fd5b6100ab6101a2565b6040516100b89190610582565b60405180910390f35b6100d46100cf3660046105ed565b610234565b60405190151581526020016100b8565b6002545b6040519081526020016100b8565b6100d4610104366004610617565b61024e565b60125b60405160ff90911681526020016100b8565b6100e861012c366004610653565b6001600160a01b031660009081526020819052604090205490565b600661010c565b6100ab610272565b6100d46101643660046105ed565b610281565b6100e8610177366004610675565b6001600160a01b03918216600090815260016020908152604080832093909416825291909152205490565b6060600380546101b1906106a8565b80601f01602080910402602001604051908101604052809291908181526020018280546101dd906106a8565b801561022a5780601f106101ff5761010080835404028352916020019161022a565b820191906000526020600020905b81548152906001019060200180831161020d57829003601f168201915b5050505050905090565b60003361024281858561028f565b60019150505b92915050565b60003361025c8582856102a1565b610267858585610324565b506001949350505050565b6060600480546101b1906106a8565b600033610242818585610324565b61029c8383836001610383565b505050565b6001600160a01b03838116600090815260016020908152604080832093861683529290522054600019811461031e578181101561030f57604051637dc7a0d960e11b81526001600160a01b038416600482015260248101829052604481018390526064015b60405180910390fd5b61031e84848484036000610383565b50505050565b6001600160a01b03831661034e57604051634b637e8f60e11b815260006004820152602401610306565b6001600160a01b0382166103785760405163ec442f0560e01b815260006004820152602401610306565b61029c838383610458565b6001600160a01b0384166103ad5760405163e602df0560e01b815260006004820152602401610306565b6001600160a01b0383166103d757604051634a1406b160e11b815260006004820152602401610306565b6001600160a01b038085166000908152600160209081526040808320938716835292905220829055801561031e57826001600160a01b0316846001600160a01b03167f8c5be1e5ebec7d5bd14f71427d1e84f3dd0314c0f7b2291e5b200ac8c7c3b9258460405161044a91815260200190565b60405180910390a350505050565b6001600160a01b03831661048357806002600082825461047891906106e2565b909155506104f59050565b6001600160a01b038316600090815260208190526040902054818110156104d65760405163391434e360e21b81526001600160a01b03851660048201526024810182905260448101839052606401610306565b6001600160a01b03841660009081526020819052604090209082900390555b6001600160a01b03821661051157600280548290039055610530565b6001600160a01b03821660009081526020819052604090208054820190555b816001600160a01b0316836001600160a01b03167fddf252ad1be2c89b69c2b068fc378daa952ba7f163c4a11628f55a4df523b3ef8360405161057591815260200190565b60405180910390a3505050565b60006020808352835180602085015260005b818110156105b057858101830151858201604001528201610594565b506000604082860101526040601f19601f8301168501019250505092915050565b80356001600160a01b03811681146105e857600080fd5b919050565b6000806040838503121561060057600080fd5b610609836105d1565b946020939093013593505050565b60008060006060848603121561062c57600080fd5b610635846105d1565b9250610643602085016105d1565b9150604084013590509250925092565b60006020828403121561066557600080fd5b61066e826105d1565b9392505050565b6000806040838503121561068857600080fd5b610691836105d1565b915061069f602084016105d1565b90509250929050565b600181811c908216806106bc57607f821691505b6020821081036106dc57634e487b7160e01b600052602260045260246000fd5b50919050565b8082018082111561024857634e487b7160e01b600052601160045260246000fdfea26469706673582212204137fc260d7fdfce58a833c2a998af73e7c3c05ebb6e9a81c6964d989c1c586564736f6c634300081700330000000000000000000000002fafa5ce36b88693b446f1d1bfa9a2fdb63b47a2",
        "nonce": "0xf",
        "accessList": []
      },
      "additionalContracts": [],
      "isFixedGasLimit": false
    },
    {
      "hash": "0x20631ca405a0843e5f8c403d1624190de2ffd9f1c6e3a476dacc22bc83f5d7c5",
      "transactionType": "CREATE",
      "contractName": "mockUSDT",
      "contractAddress": "0x6400fa9c6e144e86c5058A3999bF0f2a0356d5ff",
      "function": null,
      "arguments": [
        "0x2fAFA5Ce36B88693b446F1d1BFa9A2fdB63b47A2"
      ],
      "transaction": {
        "type": "0x02",
        "from": "0x2fafa5ce36b88693b446f1d1bfa9a2fdb63b47a2",
        "gas": "0xaffbf",
        "value": "0x0",
        "data": "0x60806040523480156200001157600080fd5b5060405162000b2838038062000b2883398101604081905262000034916200022a565b604051806040016040528060088152602001671b5bd8dad554d11560c21b815250604051806040016040528060058152602001641b5554d11560da1b815250816003908162000084919062000303565b50600462000093828262000303565b505050620000ae816516bcc41e9000620000b560201b60201c565b50620003f7565b6001600160a01b038216620000e55760405163ec442f0560e01b8152600060048201526024015b60405180910390fd5b620000f360008383620000f7565b5050565b6001600160a01b038316620001265780600260008282546200011a9190620003cf565b909155506200019a9050565b6001600160a01b038316600090815260208190526040902054818110156200017b5760405163391434e360e21b81526001600160a01b03851660048201526024810182905260448101839052606401620000dc565b6001600160a01b03841660009081526020819052604090209082900390555b6001600160a01b038216620001b857600280548290039055620001d7565b6001600160a01b03821660009081526020819052604090208054820190555b816001600160a01b0316836001600160a01b03167fddf252ad1be2c89b69c2b068fc378daa952ba7f163c4a11628f55a4df523b3ef836040516200021d91815260200190565b60405180910390a3505050565b6000602082840312156200023d57600080fd5b81516001600160a01b03811681146200025557600080fd5b9392505050565b634e487b7160e01b600052604160045260246000fd5b600181811c908216806200028757607f821691505b602082108103620002a857634e487b7160e01b600052602260045260246000fd5b50919050565b601f821115620002fe576000816000526020600020601f850160051c81016020861015620002d95750805b601f850160051c820191505b81811015620002fa57828155600101620002e5565b5050505b505050565b81516001600160401b038111156200031f576200031f6200025c565b620003378162000330845462000272565b84620002ae565b602080601f8311600181146200036f5760008415620003565750858301515b600019600386901b1c1916600185901b178555620002fa565b600085815260208120601f198616915b82811015620003a0578886015182559484019460019091019084016200037f565b5085821015620003bf5787850151600019600388901b60f8161c191681555b5050505050600190811b01905550565b80820180821115620003f157634e487b7160e01b600052601160045260246000fd5b92915050565b61072180620004076000396000f3fe608060405234801561001057600080fd5b50600436106100935760003560e01c8063313ce56711610066578063313ce567146100fe57806370a082311461010d57806395d89b4114610136578063a9059cbb1461013e578063dd62ed3e1461015157600080fd5b806306fdde0314610098578063095ea7b3146100b657806318160ddd146100d957806323b872dd146100eb575b600080fd5b6100a061018a565b6040516100ad919061056a565b60405180910390f35b6100c96100c43660046105d5565b61021c565b60405190151581526020016100ad565b6002545b6040519081526020016100ad565b6100c96100f93660046105ff565b610236565b604051600681526020016100ad565b6100dd61011b36600461063b565b6001600160a01b031660009081526020819052604090205490565b6100a061025a565b6100c961014c3660046105d5565b610269565b6100dd61015f36600461065d565b6001600160a01b03918216600090815260016020908152604080832093909416825291909152205490565b60606003805461019990610690565b80601f01602080910402602001604051908101604052809291908181526020018280546101c590610690565b80156102125780601f106101e757610100808354040283529160200191610212565b820191906000526020600020905b8154815290600101906020018083116101f557829003601f168201915b5050505050905090565b60003361022a818585610277565b60019150505b92915050565b600033610244858285610289565b61024f85858561030c565b506001949350505050565b60606004805461019990610690565b60003361022a81858561030c565b610284838383600161036b565b505050565b6001600160a01b03838116600090815260016020908152604080832093861683529290522054600019811461030657818110156102f757604051637dc7a0d960e11b81526001600160a01b038416600482015260248101829052604481018390526064015b60405180910390fd5b6103068484848403600061036b565b50505050565b6001600160a01b03831661033657604051634b637e8f60e11b8152600060048201526024016102ee565b6001600160a01b0382166103605760405163ec442f0560e01b8152600060048201526024016102ee565b610284838383610440565b6001600160a01b0384166103955760405163e602df0560e01b8152600060048201526024016102ee565b6001600160a01b0383166103bf57604051634a1406b160e11b8152600060048201526024016102ee565b6001600160a01b038085166000908152600160209081526040808320938716835292905220829055801561030657826001600160a01b0316846001600160a01b03167f8c5be1e5ebec7d5bd14f71427d1e84f3dd0314c0f7b2291e5b200ac8c7c3b9258460405161043291815260200190565b60405180910390a350505050565b6001600160a01b03831661046b57806002600082825461046091906106ca565b909155506104dd9050565b6001600160a01b038316600090815260208190526040902054818110156104be5760405163391434e360e21b81526001600160a01b038516600482015260248101829052604481018390526064016102ee565b6001600160a01b03841660009081526020819052604090209082900390555b6001600160a01b0382166104f957600280548290039055610518565b6001600160a01b03821660009081526020819052604090208054820190555b816001600160a01b0316836001600160a01b03167fddf252ad1be2c89b69c2b068fc378daa952ba7f163c4a11628f55a4df523b3ef8360405161055d91815260200190565b60405180910390a3505050565b60006020808352835180602085015260005b818110156105985785810183015185820160400152820161057c565b506000604082860101526040601f19601f8301168501019250505092915050565b80356001600160a01b03811681146105d057600080fd5b919050565b600080604083850312156105e857600080fd5b6105f1836105b9565b946020939093013593505050565b60008060006060848603121561061457600080fd5b61061d846105b9565b925061062b602085016105b9565b9150604084013590509250925092565b60006020828403121561064d57600080fd5b610656826105b9565b9392505050565b6000806040838503121561067057600080fd5b610679836105b9565b9150610687602084016105b9565b90509250929050565b600181811c908216806106a457607f821691505b6020821081036106c457634e487b7160e01b600052602260045260246000fd5b50919050565b8082018082111561023057634e487b7160e01b600052601160045260246000fdfea2646970667358221220065abfa37b01c8d4331d46034508bbcdbec329b0e2d33906782dfa517b8ffd2c64736f6c634300081700330000000000000000000000002fafa5ce36b88693b446f1d1bfa9a2fdb63b47a2",
        "nonce": "0x10",
        "accessList": []
      },
      "additionalContracts": [],
      "isFixedGasLimit": false
    },
    {
      "hash": "0x0e232b3a3e6530abd4945b9404074bc4c3cf410c4a881be3e7d684bfcf4d67a5",
      "transactionType": "CREATE",
      "contractName": "mockWETH",
      "contractAddress": "0x78Eb3b7C5872D0F00130501fCE8A7550FD50470c",
      "function": null,
      "arguments": [
        "0x2fAFA5Ce36B88693b446F1d1BFa9A2fdB63b47A2"
      ],
      "transaction": {
        "type": "0x02",
        "from": "0x2fafa5ce36b88693b446f1d1bfa9a2fdb63b47a2",
        "gas": "0xb1a22",
        "value": "0x0",
        "data": "0x60806040523480156200001157600080fd5b5060405162000b4038038062000b4083398101604081905262000034916200022a565b604051806040016040528060088152602001670dadec6d6ae8aa8960c31b815250604051806040016040528060058152602001640daae8aa8960db1b815250816003908162000084919062000303565b50600462000093828262000303565b505050620000ae816516bcc41e9000620000b560201b60201c565b50620003f7565b6001600160a01b038216620000e55760405163ec442f0560e01b8152600060048201526024015b60405180910390fd5b620000f360008383620000f7565b5050565b6001600160a01b038316620001265780600260008282546200011a9190620003cf565b909155506200019a9050565b6001600160a01b038316600090815260208190526040902054818110156200017b5760405163391434e360e21b81526001600160a01b03851660048201526024810182905260448101839052606401620000dc565b6001600160a01b03841660009081526020819052604090209082900390555b6001600160a01b038216620001b857600280548290039055620001d7565b6001600160a01b03821660009081526020819052604090208054820190555b816001600160a01b0316836001600160a01b03167fddf252ad1be2c89b69c2b068fc378daa952ba7f163c4a11628f55a4df523b3ef836040516200021d91815260200190565b60405180910390a3505050565b6000602082840312156200023d57600080fd5b81516001600160a01b03811681146200025557600080fd5b9392505050565b634e487b7160e01b600052604160045260246000fd5b600181811c908216806200028757607f821691505b602082108103620002a857634e487b7160e01b600052602260045260246000fd5b50919050565b601f821115620002fe576000816000526020600020601f850160051c81016020861015620002d95750805b601f850160051c820191505b81811015620002fa57828155600101620002e5565b5050505b505050565b81516001600160401b038111156200031f576200031f6200025c565b620003378162000330845462000272565b84620002ae565b602080601f8311600181146200036f5760008415620003565750858301515b600019600386901b1c1916600185901b178555620002fa565b600085815260208120601f198616915b82811015620003a0578886015182559484019460019091019084016200037f565b5085821015620003bf5787850151600019600388901b60f8161c191681555b5050505050600190811b01905550565b80820180821115620003f157634e487b7160e01b600052601160045260246000fd5b92915050565b61073980620004076000396000f3fe608060405234801561001057600080fd5b506004361061009e5760003560e01c806370a082311161006657806370a082311461011e57806395d89b4114610147578063a9059cbb1461014f578063b7e4465914610162578063dd62ed3e1461016957600080fd5b806306fdde03146100a3578063095ea7b3146100c157806318160ddd146100e457806323b872dd146100f6578063313ce56714610109575b600080fd5b6100ab6101a2565b6040516100b89190610582565b60405180910390f35b6100d46100cf3660046105ed565b610234565b60405190151581526020016100b8565b6002545b6040519081526020016100b8565b6100d4610104366004610617565b61024e565b60125b60405160ff90911681526020016100b8565b6100e861012c366004610653565b6001600160a01b031660009081526020819052604090205490565b6100ab610272565b6100d461015d3660046105ed565b610281565b600661010c565b6100e8610177366004610675565b6001600160a01b03918216600090815260016020908152604080832093909416825291909152205490565b6060600380546101b1906106a8565b80601f01602080910402602001604051908101604052809291908181526020018280546101dd906106a8565b801561022a5780601f106101ff5761010080835404028352916020019161022a565b820191906000526020600020905b81548152906001019060200180831161020d57829003601f168201915b5050505050905090565b60003361024281858561028f565b60019150505b92915050565b60003361025c8582856102a1565b610267858585610324565b506001949350505050565b6060600480546101b1906106a8565b600033610242818585610324565b61029c8383836001610383565b505050565b6001600160a01b03838116600090815260016020908152604080832093861683529290522054600019811461031e578181101561030f57604051637dc7a0d960e11b81526001600160a01b038416600482015260248101829052604481018390526064015b60405180910390fd5b61031e84848484036000610383565b50505050565b6001600160a01b03831661034e57604051634b637e8f60e11b815260006004820152602401610306565b6001600160a01b0382166103785760405163ec442f0560e01b815260006004820152602401610306565b61029c838383610458565b6001600160a01b0384166103ad5760405163e602df0560e01b815260006004820152602401610306565b6001600160a01b0383166103d757604051634a1406b160e11b815260006004820152602401610306565b6001600160a01b038085166000908152600160209081526040808320938716835292905220829055801561031e57826001600160a01b0316846001600160a01b03167f8c5be1e5ebec7d5bd14f71427d1e84f3dd0314c0f7b2291e5b200ac8c7c3b9258460405161044a91815260200190565b60405180910390a350505050565b6001600160a01b03831661048357806002600082825461047891906106e2565b909155506104f59050565b6001600160a01b038316600090815260208190526040902054818110156104d65760405163391434e360e21b81526001600160a01b03851660048201526024810182905260448101839052606401610306565b6001600160a01b03841660009081526020819052604090209082900390555b6001600160a01b03821661051157600280548290039055610530565b6001600160a01b03821660009081526020819052604090208054820190555b816001600160a01b0316836001600160a01b03167fddf252ad1be2c89b69c2b068fc378daa952ba7f163c4a11628f55a4df523b3ef8360405161057591815260200190565b60405180910390a3505050565b60006020808352835180602085015260005b818110156105b057858101830151858201604001528201610594565b506000604082860101526040601f19601f8301168501019250505092915050565b80356001600160a01b03811681146105e857600080fd5b919050565b6000806040838503121561060057600080fd5b610609836105d1565b946020939093013593505050565b60008060006060848603121561062c57600080fd5b610635846105d1565b9250610643602085016105d1565b9150604084013590509250925092565b60006020828403121561066557600080fd5b61066e826105d1565b9392505050565b6000806040838503121561068857600080fd5b610691836105d1565b915061069f602084016105d1565b90509250929050565b600181811c908216806106bc57607f821691505b6020821081036106dc57634e487b7160e01b600052602260045260246000fd5b50919050565b8082018082111561024857634e487b7160e01b600052601160045260246000fdfea26469706673582212201e15cd9181ce34a5cdbfb91e0da49c8595cf9b6ada22f3fd8edc2f91a92533e164736f6c634300081700330000000000000000000000002fafa5ce36b88693b446f1d1bfa9a2fdb63b47a2",
        "nonce": "0x11",
        "accessList": []
      },
      "additionalContracts": [],
      "isFixedGasLimit": false
    },
    {
      "hash": "0x98d0818908c4a0646e0897427ac626254951db25e162220de3e194ecfdc24705",
      "transactionType": "CALL",
      "contractName": "mockWETH",
      "contractAddress": "0x78Eb3b7C5872D0F00130501fCE8A7550FD50470c",
      "function": "approve(address,uint256)",
      "arguments": [
        "0x5b73C5498c1E3b4dbA84de0F1833c4a029d90519",
        "5000000000"
      ],
      "transaction": {
        "type": "0x02",
        "from": "0x2fafa5ce36b88693b446f1d1bfa9a2fdb63b47a2",
        "to": "0x78eb3b7c5872d0f00130501fce8a7550fd50470c",
        "gas": "0x108c6",
        "value": "0x0",
        "data": "0x095ea7b30000000000000000000000005b73c5498c1e3b4dba84de0f1833c4a029d90519000000000000000000000000000000000000000000000000000000012a05f200",
        "nonce": "0x12",
        "accessList": []
      },
      "additionalContracts": [],
      "isFixedGasLimit": false
    },
    {
      "hash": "0xdb595c8c836bb6c78b32ee53a6d151d2ce36905ebd1180da4ccee8ff56b28e0c",
      "transactionType": "CALL",
      "contractName": "mockUSDC",
      "contractAddress": "0x8591F9D2E810360639794EB2D38Cb8dcB5F71F73",
      "function": "approve(address,uint256)",
      "arguments": [
        "0x5b73C5498c1E3b4dbA84de0F1833c4a029d90519",
        "5000000000"
      ],
      "transaction": {
        "type": "0x02",
        "from": "0x2fafa5ce36b88693b446f1d1bfa9a2fdb63b47a2",
        "to": "0x8591f9d2e810360639794eb2d38cb8dcb5f71f73",
        "gas": "0x108c6",
        "value": "0x0",
        "data": "0x095ea7b30000000000000000000000005b73c5498c1e3b4dba84de0f1833c4a029d90519000000000000000000000000000000000000000000000000000000012a05f200",
        "nonce": "0x13",
        "accessList": []
      },
      "additionalContracts": [],
      "isFixedGasLimit": false
    },
    {
      "hash": "0xadf96f281e4896534273296881d2990fe04a4c144be9647a64f0cf18817f5a92",
      "transactionType": "CALL",
      "contractName": "mockUSDT",
      "contractAddress": "0x6400fa9c6e144e86c5058A3999bF0f2a0356d5ff",
      "function": "approve(address,uint256)",
      "arguments": [
        "0x5b73C5498c1E3b4dbA84de0F1833c4a029d90519",
        "5000000000"
      ],
      "transaction": {
        "type": "0x02",
        "from": "0x2fafa5ce36b88693b446f1d1bfa9a2fdb63b47a2",
        "to": "0x6400fa9c6e144e86c5058a3999bf0f2a0356d5ff",
        "gas": "0x108c6",
        "value": "0x0",
        "data": "0x095ea7b30000000000000000000000005b73c5498c1e3b4dba84de0f1833c4a029d90519000000000000000000000000000000000000000000000000000000012a05f200",
        "nonce": "0x14",
        "accessList": []
      },
      "additionalContracts": [],
      "isFixedGasLimit": false
    },
    {
      "hash": "0x9bfb96751848b693529a1e635590c268ff8777ffc4901345a618e97c16ef9471",
      "transactionType": "CALL",
      "contractName": "mockDAI",
      "contractAddress": "0x00c47CE0Ab494eF4e7356406e53d780Df7C6e29E",
      "function": "approve(address,uint256)",
      "arguments": [
        "0x5b73C5498c1E3b4dbA84de0F1833c4a029d90519",
        "5000000000"
      ],
      "transaction": {
        "type": "0x02",
        "from": "0x2fafa5ce36b88693b446f1d1bfa9a2fdb63b47a2",
        "to": "0x00c47ce0ab494ef4e7356406e53d780df7c6e29e",
        "gas": "0x108c6",
        "value": "0x0",
        "data": "0x095ea7b30000000000000000000000005b73c5498c1e3b4dba84de0f1833c4a029d90519000000000000000000000000000000000000000000000000000000012a05f200",
        "nonce": "0x15",
        "accessList": []
      },
      "additionalContracts": [],
      "isFixedGasLimit": false
    },
    {
      "hash": "0xbe9a7a5b53ecc0d393d6c23aaf5d0cf06e9359e1a92c72c5167841101d54f7dd",
      "transactionType": "CALL",
      "contractName": "mockWETH",
      "contractAddress": "0x78Eb3b7C5872D0F00130501fCE8A7550FD50470c",
      "function": "transfer(address,uint256)",
      "arguments": [
        "0xf3bC9Fce01133Bad3a46898bD91DeE7A24d3Bef2",
        "1000000000"
      ],
      "transaction": {
        "type": "0x02",
        "from": "0x2fafa5ce36b88693b446f1d1bfa9a2fdb63b47a2",
        "to": "0x78eb3b7c5872d0f00130501fce8a7550fd50470c",
        "gas": "0x12691",
        "value": "0x0",
        "data": "0xa9059cbb000000000000000000000000f3bc9fce01133bad3a46898bd91dee7a24d3bef2000000000000000000000000000000000000000000000000000000003b9aca00",
        "nonce": "0x16",
        "accessList": []
      },
      "additionalContracts": [],
      "isFixedGasLimit": false
    },
    {
      "hash": "0x4f9c2a15c7816f544fdade54d9fdf6b07a4f3a1d0859b8770b7c26bea029a919",
      "transactionType": "CALL",
      "contractName": "mockUSDC",
      "contractAddress": "0x8591F9D2E810360639794EB2D38Cb8dcB5F71F73",
      "function": "transfer(address,uint256)",
      "arguments": [
        "0xf3bC9Fce01133Bad3a46898bD91DeE7A24d3Bef2",
        "1000000000"
      ],
      "transaction": {
        "type": "0x02",
        "from": "0x2fafa5ce36b88693b446f1d1bfa9a2fdb63b47a2",
        "to": "0x8591f9d2e810360639794eb2d38cb8dcb5f71f73",
        "gas": "0x11652",
        "value": "0x0",
        "data": "0xa9059cbb000000000000000000000000f3bc9fce01133bad3a46898bd91dee7a24d3bef2000000000000000000000000000000000000000000000000000000003b9aca00",
        "nonce": "0x17",
        "accessList": []
      },
      "additionalContracts": [],
      "isFixedGasLimit": false
    },
    {
      "hash": "0xc9d5d64f495e04861c67ff3ab3012fb16f671ce6c1230ddcefe30a4ee6eb12a7",
      "transactionType": "CALL",
      "contractName": "mockUSDT",
      "contractAddress": "0x6400fa9c6e144e86c5058A3999bF0f2a0356d5ff",
      "function": "transfer(address,uint256)",
      "arguments": [
        "0xf3bC9Fce01133Bad3a46898bD91DeE7A24d3Bef2",
        "1000000000"
      ],
      "transaction": {
        "type": "0x02",
        "from": "0x2fafa5ce36b88693b446f1d1bfa9a2fdb63b47a2",
        "to": "0x6400fa9c6e144e86c5058a3999bf0f2a0356d5ff",
        "gas": "0x11652",
        "value": "0x0",
        "data": "0xa9059cbb000000000000000000000000f3bc9fce01133bad3a46898bd91dee7a24d3bef2000000000000000000000000000000000000000000000000000000003b9aca00",
        "nonce": "0x18",
        "accessList": []
      },
      "additionalContracts": [],
      "isFixedGasLimit": false
    },
    {
      "hash": "0xa635f1af610eb0ce2f5f7b715817a76a0eaa44bdd6100fbf5ea5055aca75694c",
      "transactionType": "CALL",
      "contractName": "mockDAI",
      "contractAddress": "0x00c47CE0Ab494eF4e7356406e53d780Df7C6e29E",
      "function": "transfer(address,uint256)",
      "arguments": [
        "0xf3bC9Fce01133Bad3a46898bD91DeE7A24d3Bef2",
        "1000000000"
      ],
      "transaction": {
        "type": "0x02",
        "from": "0x2fafa5ce36b88693b446f1d1bfa9a2fdb63b47a2",
        "to": "0x00c47ce0ab494ef4e7356406e53d780df7c6e29e",
        "gas": "0x12691",
        "value": "0x0",
        "data": "0xa9059cbb000000000000000000000000f3bc9fce01133bad3a46898bd91dee7a24d3bef2000000000000000000000000000000000000000000000000000000003b9aca00",
        "nonce": "0x19",
        "accessList": []
      },
      "additionalContracts": [],
      "isFixedGasLimit": false
    },
    {
      "hash": "0xd9397734ecc421f47593267ac6cd1ab89569e7d48664bacd33cba676eb1448ba",
      "transactionType": "CALL",
      "contractName": "mockWETH",
      "contractAddress": "0x78Eb3b7C5872D0F00130501fCE8A7550FD50470c",
      "function": "transfer(address,uint256)",
      "arguments": [
        "0xC7dA10b318Fe53B8FDD4C1612B98a44154e081DD",
        "1000000000"
      ],
      "transaction": {
        "type": "0x02",
        "from": "0x2fafa5ce36b88693b446f1d1bfa9a2fdb63b47a2",
        "to": "0x78eb3b7c5872d0f00130501fce8a7550fd50470c",
        "gas": "0x12691",
        "value": "0x0",
        "data": "0xa9059cbb000000000000000000000000c7da10b318fe53b8fdd4c1612b98a44154e081dd000000000000000000000000000000000000000000000000000000003b9aca00",
        "nonce": "0x1a",
        "accessList": []
      },
      "additionalContracts": [],
      "isFixedGasLimit": false
    },
    {
      "hash": "0x81a43eb92754f571599fed5433839c6fcb7b12256de05a299d8f73b35453189a",
      "transactionType": "CALL",
      "contractName": "mockUSDC",
      "contractAddress": "0x8591F9D2E810360639794EB2D38Cb8dcB5F71F73",
      "function": "transfer(address,uint256)",
      "arguments": [
        "0xC7dA10b318Fe53B8FDD4C1612B98a44154e081DD",
        "1000000000"
      ],
      "transaction": {
        "type": "0x02",
        "from": "0x2fafa5ce36b88693b446f1d1bfa9a2fdb63b47a2",
        "to": "0x8591f9d2e810360639794eb2d38cb8dcb5f71f73",
        "gas": "0x11652",
        "value": "0x0",
        "data": "0xa9059cbb000000000000000000000000c7da10b318fe53b8fdd4c1612b98a44154e081dd000000000000000000000000000000000000000000000000000000003b9aca00",
        "nonce": "0x1b",
        "accessList": []
      },
      "additionalContracts": [],
      "isFixedGasLimit": false
    },
    {
      "hash": "0x447cd9ad849e79493569034efa5b603e911b83664867208352f165ecb5caba60",
      "transactionType": "CALL",
      "contractName": "mockUSDT",
      "contractAddress": "0x6400fa9c6e144e86c5058A3999bF0f2a0356d5ff",
      "function": "transfer(address,uint256)",
      "arguments": [
        "0xC7dA10b318Fe53B8FDD4C1612B98a44154e081DD",
        "1000000000"
      ],
      "transaction": {
        "type": "0x02",
        "from": "0x2fafa5ce36b88693b446f1d1bfa9a2fdb63b47a2",
        "to": "0x6400fa9c6e144e86c5058a3999bf0f2a0356d5ff",
        "gas": "0x11652",
        "value": "0x0",
        "data": "0xa9059cbb000000000000000000000000c7da10b318fe53b8fdd4c1612b98a44154e081dd000000000000000000000000000000000000000000000000000000003b9aca00",
        "nonce": "0x1c",
        "accessList": []
      },
      "additionalContracts": [],
      "isFixedGasLimit": false
    },
    {
      "hash": "0x4d7e357b289b5740b54e075d544bb928d589edbb00970a0bd2070249f3b840ba",
      "transactionType": "CALL",
      "contractName": "mockDAI",
      "contractAddress": "0x00c47CE0Ab494eF4e7356406e53d780Df7C6e29E",
      "function": "transfer(address,uint256)",
      "arguments": [
        "0xC7dA10b318Fe53B8FDD4C1612B98a44154e081DD",
        "1000000000"
      ],
      "transaction": {
        "type": "0x02",
        "from": "0x2fafa5ce36b88693b446f1d1bfa9a2fdb63b47a2",
        "to": "0x00c47ce0ab494ef4e7356406e53d780df7c6e29e",
        "gas": "0x12691",
        "value": "0x0",
        "data": "0xa9059cbb000000000000000000000000c7da10b318fe53b8fdd4c1612b98a44154e081dd000000000000000000000000000000000000000000000000000000003b9aca00",
        "nonce": "0x1d",
        "accessList": []
      },
      "additionalContracts": [],
      "isFixedGasLimit": false
    },
    {
      "hash": null,
      "transactionType": "CALL",
      "contractName": "mockWETH",
      "contractAddress": "0x78Eb3b7C5872D0F00130501fCE8A7550FD50470c",
      "function": "transfer(address,uint256)",
      "arguments": [
        "0x9E255510fa8F84d15bb196590a43e847E8d609a3",
        "1000000000"
      ],
      "transaction": {
        "type": "0x02",
        "from": "0x2fafa5ce36b88693b446f1d1bfa9a2fdb63b47a2",
        "to": "0x78eb3b7c5872d0f00130501fce8a7550fd50470c",
        "gas": "0x12691",
        "value": "0x0",
        "data": "0xa9059cbb0000000000000000000000009e255510fa8f84d15bb196590a43e847e8d609a3000000000000000000000000000000000000000000000000000000003b9aca00",
        "nonce": "0x1e",
        "accessList": []
      },
      "additionalContracts": [],
      "isFixedGasLimit": false
    },
    {
      "hash": null,
      "transactionType": "CALL",
      "contractName": "mockUSDC",
      "contractAddress": "0x8591F9D2E810360639794EB2D38Cb8dcB5F71F73",
      "function": "transfer(address,uint256)",
      "arguments": [
        "0x9E255510fa8F84d15bb196590a43e847E8d609a3",
        "1000000000"
      ],
      "transaction": {
        "type": "0x02",
        "from": "0x2fafa5ce36b88693b446f1d1bfa9a2fdb63b47a2",
        "to": "0x8591f9d2e810360639794eb2d38cb8dcb5f71f73",
        "gas": "0x11652",
        "value": "0x0",
        "data": "0xa9059cbb0000000000000000000000009e255510fa8f84d15bb196590a43e847e8d609a3000000000000000000000000000000000000000000000000000000003b9aca00",
        "nonce": "0x1f",
        "accessList": []
      },
      "additionalContracts": [],
      "isFixedGasLimit": false
    },
    {
      "hash": null,
      "transactionType": "CALL",
      "contractName": "mockUSDT",
      "contractAddress": "0x6400fa9c6e144e86c5058A3999bF0f2a0356d5ff",
      "function": "transfer(address,uint256)",
      "arguments": [
        "0x9E255510fa8F84d15bb196590a43e847E8d609a3",
        "1000000000"
      ],
      "transaction": {
        "type": "0x02",
        "from": "0x2fafa5ce36b88693b446f1d1bfa9a2fdb63b47a2",
        "to": "0x6400fa9c6e144e86c5058a3999bf0f2a0356d5ff",
        "gas": "0x11652",
        "value": "0x0",
        "data": "0xa9059cbb0000000000000000000000009e255510fa8f84d15bb196590a43e847e8d609a3000000000000000000000000000000000000000000000000000000003b9aca00",
        "nonce": "0x20",
        "accessList": []
      },
      "additionalContracts": [],
      "isFixedGasLimit": false
    },
    {
      "hash": null,
      "transactionType": "CALL",
      "contractName": "mockDAI",
      "contractAddress": "0x00c47CE0Ab494eF4e7356406e53d780Df7C6e29E",
      "function": "transfer(address,uint256)",
      "arguments": [
        "0x9E255510fa8F84d15bb196590a43e847E8d609a3",
        "1000000000"
      ],
      "transaction": {
        "type": "0x02",
        "from": "0x2fafa5ce36b88693b446f1d1bfa9a2fdb63b47a2",
        "to": "0x00c47ce0ab494ef4e7356406e53d780df7c6e29e",
        "gas": "0x12691",
        "value": "0x0",
        "data": "0xa9059cbb0000000000000000000000009e255510fa8f84d15bb196590a43e847e8d609a3000000000000000000000000000000000000000000000000000000003b9aca00",
        "nonce": "0x21",
        "accessList": []
      },
      "additionalContracts": [],
      "isFixedGasLimit": false
    },
    {
      "hash": null,
      "transactionType": "CALL",
      "contractName": "mockWETH",
      "contractAddress": "0x78Eb3b7C5872D0F00130501fCE8A7550FD50470c",
      "function": "transfer(address,uint256)",
      "arguments": [
        "0x73d720768cD18e1a9473D874f064B08e1a5037f1",
        "1000000000"
      ],
      "transaction": {
        "type": "0x02",
        "from": "0x2fafa5ce36b88693b446f1d1bfa9a2fdb63b47a2",
        "to": "0x78eb3b7c5872d0f00130501fce8a7550fd50470c",
        "gas": "0x12691",
        "value": "0x0",
        "data": "0xa9059cbb00000000000000000000000073d720768cd18e1a9473d874f064b08e1a5037f1000000000000000000000000000000000000000000000000000000003b9aca00",
        "nonce": "0x22",
        "accessList": []
      },
      "additionalContracts": [],
      "isFixedGasLimit": false
    },
    {
      "hash": null,
      "transactionType": "CALL",
      "contractName": "mockUSDC",
      "contractAddress": "0x8591F9D2E810360639794EB2D38Cb8dcB5F71F73",
      "function": "transfer(address,uint256)",
      "arguments": [
        "0x73d720768cD18e1a9473D874f064B08e1a5037f1",
        "1000000000"
      ],
      "transaction": {
        "type": "0x02",
        "from": "0x2fafa5ce36b88693b446f1d1bfa9a2fdb63b47a2",
        "to": "0x8591f9d2e810360639794eb2d38cb8dcb5f71f73",
        "gas": "0x11652",
        "value": "0x0",
        "data": "0xa9059cbb00000000000000000000000073d720768cd18e1a9473d874f064b08e1a5037f1000000000000000000000000000000000000000000000000000000003b9aca00",
        "nonce": "0x23",
        "accessList": []
      },
      "additionalContracts": [],
      "isFixedGasLimit": false
    },
    {
      "hash": null,
      "transactionType": "CALL",
      "contractName": "mockUSDT",
      "contractAddress": "0x6400fa9c6e144e86c5058A3999bF0f2a0356d5ff",
      "function": "transfer(address,uint256)",
      "arguments": [
        "0x73d720768cD18e1a9473D874f064B08e1a5037f1",
        "1000000000"
      ],
      "transaction": {
        "type": "0x02",
        "from": "0x2fafa5ce36b88693b446f1d1bfa9a2fdb63b47a2",
        "to": "0x6400fa9c6e144e86c5058a3999bf0f2a0356d5ff",
        "gas": "0x11652",
        "value": "0x0",
        "data": "0xa9059cbb00000000000000000000000073d720768cd18e1a9473d874f064b08e1a5037f1000000000000000000000000000000000000000000000000000000003b9aca00",
        "nonce": "0x24",
        "accessList": []
      },
      "additionalContracts": [],
      "isFixedGasLimit": false
    },
    {
      "hash": null,
      "transactionType": "CALL",
      "contractName": "mockDAI",
      "contractAddress": "0x00c47CE0Ab494eF4e7356406e53d780Df7C6e29E",
      "function": "transfer(address,uint256)",
      "arguments": [
        "0x73d720768cD18e1a9473D874f064B08e1a5037f1",
        "1000000000"
      ],
      "transaction": {
        "type": "0x02",
        "from": "0x2fafa5ce36b88693b446f1d1bfa9a2fdb63b47a2",
        "to": "0x00c47ce0ab494ef4e7356406e53d780df7c6e29e",
        "gas": "0x12691",
        "value": "0x0",
        "data": "0xa9059cbb00000000000000000000000073d720768cd18e1a9473d874f064b08e1a5037f1000000000000000000000000000000000000000000000000000000003b9aca00",
        "nonce": "0x25",
        "accessList": []
      },
      "additionalContracts": [],
      "isFixedGasLimit": false
    }
  ],
  "receipts": [],
  "libraries": [],
  "pending": [
    "0xffc570f9fc46759b47d8c68800f4f402ec9dce76094e910f6c2de0e92aeadb26",
    "0xc19cdaa7c4b1d87b6910c1750c224261485761caac171395b4f94264d011edf6",
    "0x20631ca405a0843e5f8c403d1624190de2ffd9f1c6e3a476dacc22bc83f5d7c5",
    "0x0e232b3a3e6530abd4945b9404074bc4c3cf410c4a881be3e7d684bfcf4d67a5",
    "0x98d0818908c4a0646e0897427ac626254951db25e162220de3e194ecfdc24705",
    "0xdb595c8c836bb6c78b32ee53a6d151d2ce36905ebd1180da4ccee8ff56b28e0c",
    "0xadf96f281e4896534273296881d2990fe04a4c144be9647a64f0cf18817f5a92",
    "0x9bfb96751848b693529a1e635590c268ff8777ffc4901345a618e97c16ef9471",
    "0xbe9a7a5b53ecc0d393d6c23aaf5d0cf06e9359e1a92c72c5167841101d54f7dd",
    "0x4f9c2a15c7816f544fdade54d9fdf6b07a4f3a1d0859b8770b7c26bea029a919",
    "0xc9d5d64f495e04861c67ff3ab3012fb16f671ce6c1230ddcefe30a4ee6eb12a7",
    "0xa635f1af610eb0ce2f5f7b715817a76a0eaa44bdd6100fbf5ea5055aca75694c",
    "0xd9397734ecc421f47593267ac6cd1ab89569e7d48664bacd33cba676eb1448ba",
    "0x81a43eb92754f571599fed5433839c6fcb7b12256de05a299d8f73b35453189a",
    "0x447cd9ad849e79493569034efa5b603e911b83664867208352f165ecb5caba60",
    "0x4d7e357b289b5740b54e075d544bb928d589edbb00970a0bd2070249f3b840ba"
  ],
  "returns": {},
  "timestamp": 1717185119,
  "chain": 11155111,
  "commit": "5c2aaa95"
}